:20000000003C0120D18E01008D9A01008D9A01008D9A01008D9A01008D9A01008D9A010033
:1C0020008D9A01008D9A01008D9A01008D9A01008D9A01008D9A0100D9C5000036
:04003C0000000000C0
:2000400038B586B004468DF805104FF6FF720120ADF80220090ADFF8D45AADF80000022319
:200060008DF806108DF8043069462A7820461CF0A9FA162803D1297820461CF09FFA07B051
:2000800030BD3EB504000D461ED0DFF8A40A006822461CF08FFAFF2815D000200090002372
:2000A00001AA294620460FF0ADFF60B99DF8040000F075F9C00606D59DF8040000F06FF973
:2000C00010F0040000D001203EBDFEB5164615244FF6FF7290420D4615D100208DF804007E
:2000E000DFF8487A9DF80400F97988421AD23246294600F03AF800B100249DF80400401CD3
:200100008DF80400EEE71CF051FA50B100F0A7FB40B99DF804003246294600F026F80024EC
:2001200000E014242046FEBD7CB50D46044606214C43164600F080F8A8B900F078F890B934
:200140009DF80700002E14BF054320EA0505E9B2814206D08DF807506A460821A0B219F062
:2001600085FD012076BD002076BD2DE9FC410646344606235C438846154600F05DF80028DF
:2001800052D100F054F800284ED1DFF8A079387A80001BF0CBFA040002D100F02BFA43E0B8
:2001A000397AE03689062246090EB0B219F04AFD002835D1204600F058F85FEA08000ED1B2
:2001C0003A7A9206120E002120461AF065FB38BB3A7A9200002120461BF0C0F816E02146E2
:2001E00000F030F858B9280004D02146002000F029F810B900F01EFC16E0A0F80080817868
:20020000A9420DD085700DB900210180204600F02CF8397A89062246090EB0B219F026FDF0
:2002200000F008FC012000E00020BDE8F6810622FF2168461AF030BB20346A460821A0B223
:2002400019F000BD70B5DFF8E4381D7A002200E0521CD4B2AC4206D231F824608642F7D130
:2002600001EB840070BD002070BD10B50021DFF8BC280AE030F82130DB4320F8213000EB1E
:200280008103491C9C78E4439C70137A9942F1DB10BD2DE9FE4FDFF894480646207A0F46DC
:2002A00091469B4680001BF041FA5FEA000803D100F0A0F90A206CE00C9D0297B246062735
:2002C00017FB0AF7029A07F12000082100F064F88DF80400304600F09FF8227A9200FF210E
:2002E00040461BF03BF89DF804000090E036217A89064246090EB0B219F0B8FC009E0299DA
:200300000643206A082200EBCA001BF01DF8BDB10299887900232A4600F001001CF042F936
:2003200000281CBF9DF93C00002803D0DFF804180120087007F123002A4600F02CF8064379
:200340005FEA090205D007F121001C2100F024F806435FEA0B0205D007F122001C2100F057
:200360001BF806430D9A62B107F1240000F013F8054625370EAA0421B8B219F077FC05439E
:200380002E43A07D08B100F09FFA40461BF0D6F9F0B2BDE8FE8F102180B219F067BCE0B535
:2003A0000623584320306A46082180B219F04AFC10B99DF807000EBD00200EBDDFF86C076A
:2003C000007808210EF02EBE38B50025DFF85C4719E0206A062313FB05F300EBC50220334F
:2003E000082198B219F02EFC58B1206A0622FF2100EBC5001AF0B2FF206A00EBC5010022B4
:20040000CA716D1CEDB2E1798D42E2DBA07D10B1BDE8314058E231BDF8B5DFF81017DFF8F5
:200420001837C9791E680C460A4600E02A46D5B23DB1551ED2B2324412F8017C8742F5D1BB
:200440002C46E4B220464D1E07E01718165C7F7817541A680244401C5670A8421A68F4DBB4
:20046000AC4204DABDE8F840052019F0FFBBF1BD70B50024DFF8B45600E0641CE879E3B2BD
:2004800083420BD22B6AE6B20622FF2103EBC6001AF002FA0028F0D0E0B270BDDFF89C264B
:2004A000117839B1DFF8900601680C78204600F013F8204670BD38B500200024DFF86C56B1
:2004C00003E0E0B200F008F8641CEA79E1B2914201D20100F5D032BD2DE9F84F83465D461D
:2004E000062313FB05F58EB005F1200701AA0821B8B219F0A7FB002873D10622FF2101A82A
:200500001AF0CAF900286CD1DFF82066307A80001BF00CF95FEA000903D100F06BF80A206F
:2005200061E01C22FF2103A81AF018FF327A9200FF2148461AF012FF05F123040AAA102147
:20054000A0B219F07FFB60B91022FF210AA81AF0A3F930B99DF80A0001A900F001001CF0D4
:200560001DF8082200F042F801AA0821B8B219F07DFB8DF8000003AA05F1210000F03DF8E5
:20058000074605F1220003AA00F037F8804603AA1021A0B219F06AFB044605F1240003AAB5
:2005A000102100F02BF88246253503AA0421A8B248EA070719F05AFB2743317A9DF8005011
:2005C0004AEA0707074389060BF1E0034A46090E98B219F04BFB074348461BF0AFF83D43D7
:2005E00000E0002528460FB0BDE8F08FFF2101A81AF0B4BE042019F0AFB81C2180B219F054
:2006000035BB2DE9F84187B0FF208DF80000DFF81C55E8791BF08AF8040003D1FFF7EAFFD3
:200620000A2030E01022FF2103A81AF097FEEA79FF2120461AF092FE0622FFF7D7FF03AAC0
:200640001021022019F012FB064603AA1021032019F00CFB06436A460121042019F006FB8B
:200660000746E9792246052019F000FB054601AA0621062019F0FAFA804600F0DBF93E43EF
:200680002E4348EA060008B0BDE8F081DFF89C144088097819F086BAF0B5A9B006460D462D
:2006A00014461BF083FF08B91420ACE0A422002168461AF053FEADF800600DF12607DFF8DB
:2006C0006C64F078F17B8DF80400307C8DF8A000279861F30000F17B27908A074CBF022226
:2006E000002220F0020010432790CA064CBF4FF48072002220F48070104327908A064CBFE1
:200700004FF40072002220F40070104327904A064CBF4FF48062002220F4806010432790D4
:2007200049074CBF0421002120F0040008432790707C02280CBF0120002078741BF02AFFC0
:20074000412807DB707C00B108209DF8991008438DF89900F07CB8B10121B974202206F185
:2007600088010DF139001AF0EFFD202206F1A8010DF159001AF0E8FD202206F1C8010DF19B
:2007800079001AF0E1FD00E0B874707B8DF8050090B1DFF8AC73102207F110010DF1060001
:2007A0001AF0D2FD9DF89900082805D1102239460DF116001AF0C8FD307B8DF8260030B161
:2007C0001022DFF880130DF127001AF0BDFD307948B1022D18BF032D03D1279840F00200F7
:2007E0002790012100E000219DF899000143B0788DF8991000B1042001438DF89910684662
:2008000021461BF0C3FE29B0F0BD2DE9FC41154615244FF6FF72904288460ED10027DFF805
:200820000C63F179F8B2884216D22A464146FFF77BFC00B100247F1CF3E71BF0B7FE50B114
:2008400000F00DF840B99DF804002A464146FFF76BFC002400E014242046BDE8F6810021DE
:2008600000910023417901AA01F00101801D0FF0C9BB70B504460D4606204543082B88B071
:20088000164603D1300758BF223500D521351C220021FFF7ACFE01AA1C21A8B219F0D2F943
:2008A00080B99DF81E00C01F0A280BD29DF830000090F20801AB02F0010206F00101204610
:2008C0001BF060FE08B070BD38B51BF057FE0024964D0FE0286A0622FF2100EBC40019F0F5
:2008E000DBFF28B9286A00EBC40100201BF042FE641CE4B2E8798442ECDB31BDF0B5924C1B
:200900000646606885B04FF6FF7538B9009402238E4A294601201BF029FE6060616821B334
:200920000222FF2002920023039001930DF112072288009704AB304607F066F968B99DF80D
:2009400010009DF8111000EB012290B228B16068418992B23046FFF7B8FB2288606800231E
:2009600029461BF0FFFD606008B9012000E0002005B0F0BD3EB50C46002501460095002394
:2009800001AA20460FF03EFB38B99DF80400FFF706FDC00601D401203EBD00203EBD2DE9A3
:2009A000F0416B4F3C6806468846154603E02089B04224D02468002CF9D10C201AF0B6FE55
:2009C000040019D0268184F80A8000202060E07245B1082128461AF075F9606018B900F005
:2009E00029F80AE06060396811B93C6004E0014608680028FBD10C600CB9152018E01BF02D
:200A0000ADFD08B1002013E00120E0722A4641463046FFF741FE04464448C06900281CBF49
:200A20004368002B03D000220021304698472046BDE8F08120461AF081BE38B50546444886
:200A4000046803E02089A84204D02468002CF9D1012032BDE07A012807D100F05CF820B1DE
:200A60003248007804210EF0DDFAE17A491CE1722846C9B200F002F8002032BD38B502297D
:200A800004462A4D02D003290DD01EE042F6C921FFF7D6FA02001CBFE869002818D04368EB
:200AA000B3B105210CE042F6A621FFF7C9FA01001CBFE96900290BD04B684BB102460421BA
:200AC000204601B0BDE830401847BDE8324000E031BD10B51E4A1468002101E02146246808
:200AE0006CB123898342F9D1206800290CBF10600860606808B11AF021FEFFF79BFF0020F0
:200B000010BD024604201249096819B10B899342FAD1C87A70470E48006828B1006818B111
:200B2000C17A0029FAD1704700207047A4190020680F0020563D0020D43C0020553D0020EF
:200B4000BC3A0020EC3A0020883C00201CF40100D83C00202DE9F04385B006460020894657
:200B6000009090461C46B179002304AA30460FF049FA20B1FFF77CFC8DF810001BE0D4B1A6
:200B80009DF810300620434323336A46102198B219F058F878B91022FF21684619F07CFE46
:200BA00048B9B079314600F001001BF0F7FC10B1194901200870194F9DF81000F9798842A0
:200BC00027D201200390009443460C980D990E9D019002914A469DF810003146FFF759FB3C
:200BE000044655B1397A9DF810008906E0302A46090E80B219F03AF80443200005D09DF8E9
:200C00001000FFF769FCFFF7DFFB204605B0BDE8F0831520FAE700BF563D0020A419002001
:200C20002DE9F84FDFF89457696884B0019121B905B0BDE8F04F1BF08DBC0978DFF88067F8
:200C4000DFF88077012918BF022946F2A81A40F6C41941F64C580AD004291CBF0829102966
:200C600005D0402918BF802900F0C0819CE31AF033FF0028FAD0012017F0F6FD20B10120CB
:200C800018F0D8F817F0D4FD082017F0EDFD20B1082018F0CFF817F0CBFD102017F0E4FDDC
:200CA00020B1102018F0C6F817F0C2FD0198007803F008FA0090002460B1007801281CBF60
:200CC0000828102802D10098446803E0009817F0AFFD0446DFF8F0164878002800F0F080F8
:200CE0001BF0ABF81AF026FB8246DFF8DC16DAF800000190002CD0F804B09AF80600C870AF
:200D000004D0019900981BF096F8022800F0AB8000990A78012A0AD0022A11D0042A56D06E
:200D2000082A00F00A81102A00F034813CE318B91BF00CFC4044A0600120A87011212CE128
:200D400005223A70C8B91BF001FC4044A060DFF87C266069A1681368DE69DFF874361B7894
:200D6000B21D03EB8303D25A09FB0219C0F82090A068DFF858160A6810615246DFF84C068C
:200D80000168CB69DFF848160E78981D06EB8606815B009810F042FF61696269D27F02F03C
:200DA000EF02CA77002861696269D27F42F08002CA770CBF0121022162696369DB7F03F00A
:200DC000F0031943D17761694862022049E006213970C8B91BF0BAFB4044A060DFF8F42538
:200DE0006069A16813685E69DFF8EC351B7806F10C021B01D25A09FB0219C0F82090A06878
:200E0000DFF8D0150A68D060DFF8C8653068007C11F004F930684169DFF8BC05067801F114
:200E20000C0336010098995B524610F0F7FE61696269D27F02F0EF02CA770028616962698C
:200E4000D27F42F08002CA770CBF0121022162696369DB7F03F0F0031943D177616948624D
:200E60000420A870D7E10198017880290CD10820DFF8681538700A78DBF81400012A1ABF55
:200E8000716A0978012113E0072038709AF806001AF004FC0446207BC10700F1CE80DFF8AD
:200EA0003C050178DBF8140001291CBF716A4978C1729AF80600DFF81015887001986EE248
:200EC0000098002823D00199009A0078DFF80465914212D1012809D002280DD0042800F098
:200EE0008080082802D0102806D002E0002C03D160E2002018F030FC8DE1012808D00228D1
:200F00001FD004284BD0082815D0102840D04BE2002CEDD01BF01AFB0146A068514419F01B
:200F2000C5FB18B91BF012FB4044A060112038700121A9706FE1002CDAD00820A8701221D7
:200F40002BE0052038700222AA701BF0FFFA0146A068514419F0AAFB08B100F05CB91BF01C
:200F6000F5FA4044A060DFF864246069A1681368DD69DFF85C341B78AE1D03EB8303F55A84
:200F800009FB0519C0F82090A0681168086142E1002CADD01020A870132139703BE10620AA
:200FA00038700422AA701BF0D1FA0146A068514419F07CFBA8B91BF0C9FA4044A060606993
:200FC000A16832685369DFF81024127803F10C051201AB5A09FB0319C0F82090A0683168D7
:200FE000C8603068007C11F019F814E1DFF8D8134878002800F038811AF01FFF1AF09AF996
:201000008246DAF800000290D0F804B0DFF8B80380781AF08FF90390DFF8AC139AF806004B
:20102000C87001980178402913D19AF806001AF035FB0446207BC1070BD59AF806001AF018
:2010400079F9052118F0C2FD207B00F0FE002073B0E11AF03BFD10F01F0F32D0012017F0EA
:2010600003FC20B1012017F0E5FE17F0E1FB082017F0FAFB20B1082017F0DCFE17F0D8FBDA
:20108000102017F0F1FB20B1102017F0D3FE17F0CFFBA87803F016F80090007801281CBF56
:2010A0000828102802D10098446803E0009817F0BFFB0446002C04D0029900981AF0BBFE35
:2010C000022800F0AD8000990A78012A08D0022A16D0042A5AD0082A0DD0102A51D09CE05B
:2010E00018B91BF033FA4044A0601120387001210098A97053E10820A870122139708AE0FD
:2011000005213970B24EB14FA8B91BF01FFA4044A0606069A1683A68D369327803F1060C97
:2011200002EB82023CF8023009FB0319C0F82090A0683968086152463868C16930788B1D8C
:2011400000EB8000195A009810F068FD61696269D27F02F0EF02CA77002861696269D27F9C
:2011600042F08002CA770CBF0121022162696369DB7F03F0F0031943D17761694862022059
:2011800048E01020A8701321397044E006213970914EA8B91BF0DAF94044A0608D4A6069CC
:2011A000A16813685B6903F10C0233781B01D25A09FB0219C0F82090A06886490A68D060F2
:2011C000844F3868007C10F029FF38684169307801F10C0300015246195A009810F01EFD46
:2011E00061696269D27F02F0EF02CA77002861696269D27F42F08002CA770CBF01210221D2
:2012000062696369DB7F03F0F0031943D177616948620420A8700098C1E0002018F09CFAAC
:20122000039850451ED002996C480A78802A0AD10821397000780128DBF814001ABF716A2C
:201240000978012109E007223A7000780128DBF814000EBF0121716A4978C1729AF8060051
:201260005949887002989AE01AF030FC10F01F0F35D0012017F0F8FA20B1012017F0DAFD6D
:2012800017F0D6FA082017F0EFFA20B1082017F0D1FD17F0CDFA102017F0E6FA20B11020AB
:2012A00017F0C8FD17F0C4FAA87802F00BFF0646307801281CBF0828102801D1746803E090
:2012C000304617F0B5FA04463078012808D0022816D004283BD008280DD0102832D069E018
:2012E000002C67D01BF032F94044A060012111203870A97052E0002C5CD0A870122124E0E4
:20130000052038701BF022F90146A068514419F0CDF9A8B91BF01AF94044A0602B4A6069E6
:20132000A1681368DB699F1D294B1B7803EB8303FB5A09FB0319C0F82090A06811680861E7
:2013400002202AE0B4B3A8701321397026E0062038701BF0FBF80146A0681E4F514419F0D9
:20136000A5F9A8B91BF0F2F84044A0606069A1683A685369184A127803F10C0C12013CF886
:20138000023009FB0319C0F82090A0683968C8603868007C10F042FE0420A870304605B0FF
:2013A000BDE8F04F0DF07CBA05B0BDE8F04F002018F0D2B905B0BDE8F08F00BF643C002072
:2013C0003CEE0100C80F0020780E0020500F0020D80F0020540F0020D90F0020CC0F002039
:2013E0002DE9F84F012017F00BFD012816D1DFF8A876387800211BF0A5F8040004BF0020FB
:2014000018F0AAF900202072201D0FF049FF05F0D7FB050003D181201BF090F837E30120DC
:201420006871072012F09DFCDFF87096DFF8702699F80100401C89F80100A879A0724020C4
:20144000397811700EF06CFC2860616D4A78206DD10620D5816C0A681179032908D0816CA9
:201460000868007903280CBF0120002018F074F9206D816C0A6890F86C0002F108060128CD
:201480001CBF002018F068F9216D486F296800F5B060C8604AE0C16E0A681179032908D08C
:2014A000C16E0868007903280CBF0120002018F053F9206DC16E0A6890F8980002F108063A
:2014C00001281CBF002018F047F9206DB5F87421D0F8A0302F68DFF8CC05DFF8CC15FB60E7
:2014E00096F826E0BEF1030F1BD8DFE80EF002050E1103F5B06301E003F53473FB6005F5D9
:201500009A720188118702880EE003F5355301E003F6B873FB6005F59A72088810870A8887
:2015200002E003F5B063FB60A5F8742106222868DFF87875C16801F59071C160B11C3078FF
:20154000C0F3801085F82E0105F12C0805F5947019F0FAFE042206F10E0105F1240019F024
:20156000F3FE386895F806C000F10C03042206F10E0103EB4C1019F0E7FE3868AB7900EB74
:201580004313032206F1120103F1100019F0DCFE707D88F80200022206F1160105F1300018
:2015A00019F0D2FE022206F1180105F1320019F0CBFE022206F11A0105F1340019F0C4FEF9
:2015C000B8F808006884022206F11C0105F1360019F0BAFE98F80200B8F80A10400088F826
:2015E00002000901B8F80400A8F80A104000A8F8040089B2B8F806004000A8F806000304AF
:201600006A8C521CDB0B5A438A4201D280B238B9DFF89C04007880210DF004FD3B2133E123
:2016200005F12E0128461AF085FF0520A8814FF01C0A28461AF07AFF052206F11E0105F1B2
:20164000610019F081FE96F82300400988F800001AF068FF688205F59A72618D401AD0802E
:2016600005F1610196F82300DFF8486400F01F0088F80F0028461AF051FF616D4A78206D5B
:20168000D1064CBF816CC16E41F62102086800210171A97930681AFB01F142520021AB7955
:2016A0001AFB03F303445980AA791AFB02F210444160616DDFF800044A78D1060DD5DFF8E3
:2016C000FC138A7851060AD5DFF8F423138841F20A418B4208BFDFF8EC03C5F89C01D5F83B
:2016E0009C11284688473268A97902F10E031AFB01F15854AA7930681AFB02F20244002063
:20170000D0733168A87901F10E021AFB00F0115C88F80D10606D4178CA061DD595F896014F
:2017200008B918F019F8A97930681AFB01F1014495F89601421E0A74A87931681AFB00F008
:201740000844002141743268A97902F112001AFB01F1002242522BE0A97930681AFB01F11D
:201760000144206D90F840200A74A87931681AFB00F00844216D91F841204274206D3168D2
:20178000AB79403001F112021AFB03F34188D15205F5CB710078012200F0030082400A70B8
:2017A000226D92F84000800814BF0120022008713168A879DFF810B301F1140239681AFBA7
:2017C00000F301EB4010D050A87931681AFB00F00844BE498161DBF814000078C107DBF8CC
:2017E000141009784CBF1F200F208A07DBF81410097848BF40F020004A07DBF814100978A2
:2018000048BF40F040000A073968AA7901EB421348BF40F080001872A979386800EB4112FA
:201820000B2050723968AA7901EB42100421A84A81721078012806D13968A87901EB401227
:201840000121D17207E0DBF824003968AA79407801EB4213D8723968A87901EB40121F21FE
:2018600011763868AA7900EB421100204876A8790EF09AF9AA79396852018850AA7939689D
:201880005201885820B90721284618F09FF9FEE09048AA79016801EB02101AF03BFEA87962
:2018A00039688C4B01EB4012196801EB00105060A979386800EB41125168C8F83C10AA795D
:2018C000520181587A48C8F84410042100780DF0A9FB616D4A783068D10648BF02210AD4C1
:2018E000A9791AFB01F101440A7C02F00302022A14BF04210621B8F8042095F806C04FF448
:20190000C8738A18698AAA615143B1FBF3F35B1C6B611AFB0CFCD5F800E06044DEF80CC073
:2019200040F6C41101FB02C2D21AA2F5A8628260AA7930681AFB02F283189A682B689A607F
:2019400000F10C03AA791AFB02F20C309B5C03F0EF038354A87932681AFB00F002F10C03AA
:201960000C321B5C03F07F031354A87932681AFB00F002F10C030C321B5C03F0F00343F046
:2019800002031354AB7930681AFB03F31844427B02F0F00242F001024273AA7930681AFB5D
:2019A00002F2024490682B6818613868AB7998F802C000F11402686940005B0111FB0C0047
:2019C00000F5F660D05095F8960104280DD13A68A87902F114034FEA401C143253F80C006F
:2019E000AB795B0100F56160D0503868AA7900F114034FEA421C53F80C20C5F83421AA7983
:201A000000EB4210C37C03F0F00343F00403C374DBF830003A68AB79006802EB431CB8F8C6
:201A2000062042436423B2FBF3F35943A1F59661CCF81C103868A97900EB4110C27E02F098
:201A4000F00242F00402C276A97930682A681AFB01FA00EB0A01516028460E211AF056FD27
:201A60001D49072008702046AA7989F8022016F013FC1A488178880704D5AA7900212046B3
:201A80001AF040FD28681649164A41618261BDE8F14F1AF0D6B900BFD50F0020780E002044
:201AA000D70F00208E0F0020900F00209C0E0020C70F0020980E002081010210C00C00209E
:201AC0009A0F00204DE501103CEE0100980C0020CC0F0020A40E0020C80F0020200E0020F9
:201AE000DDD70000020480802DE9F04F054687B0A978DFF8D466002710294FF0060A3CD860
:201B0000DFE811F011005E035E035E035E033C00CF005E035E03C1021501000113035E034A
:201B20009702D90256036878002826D11AF0E6FC04461AF0DFFC05461AF0D8FC8DF8000010
:201B400022461021022018F091F82A461021032018F08CF86A460121042018F087F89DF8D7
:201B60000000012818BF032807D101201AF0BAFC02460621062018F079F821E36878002867
:201B8000FBD195F80CB06C8900900023E97801AA01F00101281D0EF035FA00284FF00108A7
:201BA00075D19DF80400FEF7FAFB8146BBF1080F307A08BFB846800019F0B8FD050003D14C
:201BC000042017F0C9FDFBE270789DF8041002280CBF0120002000905B464A462046FEF754
:201BE00048FE1422002102A819F0B8FB9DF804001AFB00F0243002AA102180B218F022F8BF
:201C0000B0B91022FF2102A818F046FE80B99DF804001AFB00FA0AF1250306AA042198B2F0
:201C200018F010F802AA09F0010120461AF056FC317A9DF804008906E0302A46090E80B28F
:201C400018F000F898B92846FEF70FFBBA4609E005EB8000018819B18278204618F0E6FCD0
:201C60000AF1010A317A5FFA8AF08842F0D3B07A30B95FEA897003D53178204617F092FF7F
:201C80009DF80400FEF7C8FB284619F057FD7078022805D1B8F1000F02D0204613F05CFCF5
:201CA0008EE2A888FEF715FF1AF014FC0028F7D1F07D012808D1FEF7FEFBF279706AF77563
:201CC000002119F04BFB17E0307E012803D1FEF798FC377610E000240AE0706AE5B2415DAF
:201CE000012904D1E0B2FEF7F7FB716A4F55641CE0B2F1798842F0D3502018F017FDFEF763
:201D000063FB5DE21AF02AFC00280CD0F06900281CBF0468002C07D0286900906B7B2A7B7B
:201D20006989E81CA0474AE2688901213DE268780024002840F0DA80A879C10740F1D68042
:201D40000822002105A819F009FBA8881AF02EFC040076D06F694FB30622002107F11100A4
:201D600018F09AFD68B306220021384618F094FDD0B9387C00F001084FF0000909F10109C7
:201D800087F811900020009000230022414607F111000EF037F900285FFA89F002D100287B
:201DA000ECD101E000280CD1002068610622607900F001008DF81A00A11D05A819F0C4FAD4
:201DC0001FE06F69EFB1387C00F001008DF81A00062207F1110105A819F0B6FA60790128AE
:201DE00005D10622A11D04F10C0019F0ADFA062207F11101A01D19F0A7FA387C40F00200F7
:201E00006071A879410720794CBF40F0020000F0FD002071A9790A0754BF00F0DF0040F0EF
:201E200020002071A9799DF81B00890801F0010108438DF81B00A9790A074CBF0821002128
:201E400008E0FEF768FE0028ECD0307804210DF0E9F8E7E708438DF81B004FF0FF096969DE
:201E6000DFF86883FF241E2731B31022684619F06BFA102168461AF029FB4FF0000BDFF8D8
:201E8000509303E00BF101005FFA80FB99F80000834510DAD8F8001017FB0BF00A5CFF2AEC
:201EA000F0D0084400F10D011022684618F0FCFE0128E7D15C46A1460020009000239DF863
:201EC0001A1004AA05A80EF09DF8B9F1FF0F57D0342855D1707D00B3012851D1A888052148
:201EE0001AF0F0FA0124A888FEF7F3FDF06900281CBF4368002B0FD06A78A8880121984790
:201F00006878002808D1A879C10705D5F369A88822465C680321A0474AE1D8F8000000213E
:201F200017FB09F90091002310F80910401C04AA48440EF067F818BB9DF81000FEF7CCFA92
:201F4000F0B9FEF741FAFEF793FA8DF81000E968686900290CBF00220A6900230393029299
:201F6000019100902B69AA689DF8100005A9FEF790F90446A888FEF7C1FC200047D14CE038
:201F80000020009000239DF81A1004AA05A80EF039F820B1FEF76CFA8DF810001AE0686999
:201FA000C0B19DF810001AFB00FA0AF123036A46102198B217F046FE60B91022FF2168464C
:201FC00018F06AFC30B99DF81A0005A900F001001AF0E4FA9DF81000F179884227D2E96851
:201FE000686900290CBF00220A69002303930292019100902B69AA689DF8100005A9FEF72A
:2020000048F90446A888FEF779FC200005D09DF81000FEF761FAFEF7D7F9200008D1707A09
:202020000028A8887FF460AFFEF707FD5EE7152459E7687806281BD1A8881AF0B7FAB8B1C1
:20204000317D012904D013D3032907D00CD30FE04179A8880022FEF7A2FC09E00022002152
:2020600040F2094003F070FBA88805211AF02AFAF06900281CBF4368002B03D06A78A888EC
:20208000022198479BE000970023E97801AA01F00101281D0DF0B6FF0028F3D19DF804008E
:2020A0001AFB00FA0AF1250305F10C02042198B217F0DCFD83E0F06900281CBF4368002B06
:2020C00003D0A888002200219847707810B9A88805216AE0A8881AF069FA040070D0A87A87
:2020E000C10712D5009700236179002201F00101A01D0DF087FF00281EBF60790028012819
:2021000003D0E868C0F3402028B1707C022807D1A87A010704D4A88803211AF0CFF94FE06B
:202120006179A88805F1080227E02F7BAD8828461AF03CFA040042D01AF010FA00283ED1A0
:2021400000900023617901AA01F00101A01D0DF059FF28BB9DF80400FEF721F907F00C07AD
:20216000042F11D0082F0BD00C2F0FD100F0090109290BD0617900222846FEF710FC1EE0AE
:2021800010F0090F02D1F5E7C107F3D501220092A37C9DF8041002462846FEF76AFB0EE06D
:2021A00070780028E6D1052128461AF087F906E0FEF7B1FC18B1307804210CF033FF0127C6
:2021C000384607B0BDE8F08FA4190020680F0020503D00202DE9FE4F044600200090002503
:2021E0000CB917F0B9FA04F1500841F62300D8F8007038807D8002223A737A7369462046F1
:202200000DF06CF908B9072051E2009901B1B860B8682061DFF89C04017884F8B810D8F839
:202220000400407A15F0B6F925302076207EB873FD73D8F80400017D022904BF002017F0A1
:202240008BFAD8F80400007D012802D10020002104E083280CBF06200220202138747974EF
:2022600004F12406DFF850A4DAF83C0041690868717901EB41010844B0F801207A82D8F853
:202280000400417848060AD5607DC10604D5E07F40F04000E07702E040F04000607507F192
:2022A0005C0904F1300089F80050B17E890001F0040189F80010B866607DC10656D5D8F8C7
:2022C000042051788A060CD500F0FE006075D8F80400417811F0030F03D1E07F00F0FE001C
:2022E000E077607D1AF0E6F8A075421C387CC0F38001002392B200F003001AF0D7F8A08311
:202300001E20A28B02F59B7393FBF0F01E2101FB1030C0B208B1C0F11E00821802F59B72CC
:2023200062831E20A28B02F5967293B293FBF0F001FB1030A283C0B208B1C0F11E008018A8
:20234000A08380B2E27D618B521E50434018608307F13005608BB43080003866062089F8DE
:202360000300E17F41F00801E17720E040F001006075D8F804104A78510744BF40F002002F
:202380006075607D1AF096F8A0750023401C82B2387CC0F3800100F003001AF087F8A083A4
:2023A000A08B00F59670A0833D6689F80350A17D207D61F3050007F1880120750870032296
:2023C000607D48708A70B07E800000F0040040F003008870F27ED20002F008021043887018
:2023E0000020C870C7F89000B08BC0F30B00B083D8F80410CA7D40EA0230B0830022617D50
:2024000001F0FE0120460CF099FB019700271EE01C2010FB07F004EB000B01991C220BF10D
:20242000640018F091FF0BF16C00052101717F1CA28B92000260FFB2DAF83C104A691168E9
:20244000737903EB43031944B1F801204281E07D401E8742DCDB019F204610F015F9E07DC6
:20246000012809D013D3032808D03EBF04F164007860C8F818500AE07D6008E004F1640013
:20248000786004F18001C8F81810C8F8345041F6240038860021798607F13C05B868618B44
:2024A00000EB8100B8630221822028706970002194F82100E97000F03F00A870D8F804001D
:2024C000807D012818BF022803D100F07F00401E04E083280CBF06200220202128716971DE
:2024E0004FF0000BDAF83C0041690868727902EB42021044B0F80110E980C7F86CB0D8F82D
:202500000400417811F0030F20D019F0CBFFF866DAF818000078C107DAF8181009784CBF1A
:202520001F200F208A07DAF81810097848BF40F020004A07DAF81810097848BF40F0400087
:202540000A0748BF40F0800089F8140089F815B0D8F80410594A897C01F0030189F81510B1
:20256000B07E800000F00400014389F81510F07EC00000F00800014341F0100189F815107D
:20258000107838B199F8140000F0FE0041F0400189F8140089F81510E07F19F08BFF84F81C
:2025A0002000204619F07AFFE07FC10636D5D8F8040094F820204178521C88074EBFD21E8F
:2025C000F07F12182879C0F380010023D2B200F0030019F06BFF30801E22308800F59670DD
:2025E000C0F11E0190FBF2F21E2000FB02113171D8F804104878810731884CBF00204FF45B
:202600009B70401830807080B86B318832795218A63200EB82007867022002E0C7F874B0BB
:20262000002089F8170004F13000C7F8800007F18400D8F804104A78510707D504F13802F9
:20264000026099F8150040F0200007E01C490A685168016099F8150000F0DF0089F815003F
:20266000A17F94F8200060F30501A17740F60B002882A5F812B0DAF83800008880007865E4
:20268000DAF83800008800B1072028770220687794F84510E983D8F804004178880744BFC4
:2026A0000121E983009808B10CF018F80020BDE8FE8F00BF4A3D00203CEE0100880E002096
:2026C0006C0F00202DE9F84305460C46480414D4A00025D4A0075FD4600500F1818020054E
:2026E00000F10881200700F13D81600040F1F88012F066FA24F08044F2E019F009F9DFF893
:2027000024140F6D3FB1D7E90A1202F0E04201F00A0189184BD019F0BAFA24F48044DFE015
:20272000BB48DFF80474016841F080010160B878012804D1042016F0DDF90020B87019F04C
:20274000E7F80646B348406D016804208847DFF8E0130A68904219D12A7EBAB1FA68AAB182
:20276000DFF8C003806C002800F09780C16840F603020988914206D0C06840F6040100881B
:20278000884240F08A8005F1140088E040F6C4120860C5E9042284E008F0C8FDDFF88403FC
:2027A000006C002840F09D8024F0020498E0D7E90A65D7E90A12AA43B143C7E90A1219F0E5
:2027C00066FAB8680028A8D056EA0500A5D0D7F808C03869B7F9301032462B46E0479CE764
:2027E00019F096F8054617F0E9FB002800F0B780CC48876B002F00F0B280DFF82C830420BC
:20280000CC49002288F81800C64818F035FC19F050FAC94819F038FAC4480068006B80475D
:20282000C8F810000125042088F8025016F044FC386990F82810C8F80400490703D5436A6C
:20284000042100229847012013F060F9D8F8040045760EF0FBF9D8F8040081680B461A46E6
:202860005B684BB11E88A6F60306072EF7D805FA06F616F0830FF2D0537B03F0F00301330D
:2028800053730023FD6853602D88A5F60305012D00F28A80C8F810309FE005F1100014F02C
:2028A00069FD304619F0F3F916F01EFC78B12E6A28466FF4807100224FF00073B0479948F8
:2028C000806B10B112F07CF901E044F00204EE692846002100224FF08063B04724F0005431
:2028E00034B1984821462830BDE8F84319F095BABDE8F8838C4EB078012804D1042016F0D2
:20290000F9F80020B07016F0EFFB38B170686FF4807100224FF00073056AA847306950B1B5
:2029200082480068006B804732697168801A000BC860002030617B4D81490022284618F017
:202940009BFB02203076286C20B17E480221283019F063FA12F034F924F40064C0E719F0B2
:20296000A8F941E018F0D4FF054617F027FBA0B1DFF8B48198F8000000070ED498F90000DF
:2029800000280AD468460EF04BFB08B1009820B1DFF8B49199F8610048B319F08AF912F086
:2029A0000FF924F008049BE7034633F8385FA5B190F8445090F8456005F0F00580F84450CD
:2029C00006F0F005013580F8455000255360C5634587507B00F0F000507358480022C261AA
:2029E0000160012017F092FD24F4806478E700260127602E10D009EB0600817A31B18772D8
:202A0000407A07FA00F0C0B216F08EF82036F0E7CC2108408C010010032088F818004648C5
:202A200019F032F919F045F9444F3E4D0022786900207861F968F8602846444918F01CFB2E
:202A40003A480068006B8047D8F80C10D8F82020411A02EB1130B0EB113F38BF4FF0FF3085
:202A600098F82410C8F8200021B1D8F80810B0EBC12F20D917F05AFDB8B140F609004146E7
:202A800021F83C0F002048804A7B02F0F00201324A730A7B02F0F0020A734860F8613960D1
:202AA000B8F83E0010F4406FFAD00020C8F82000012088F8240014F077F925480021016083
:202AC0000220002117F022FD022016F013F810200DF004FC98F8010020B9D8F8040050306F
:202AE00019F097F91B48807810B90D200DF0F6FB98F8250028B1002088F82500052015F081
:202B0000F9FF002088F818001348C8F81C000220B5F85610B5F85420914208BF072011F0B6
:202B20009DFA3CE7301E0020C41B00208C01001050230020999F0100443800200010044015
:202B4000E5D50000681D0020E0340020254C010000000460F0F20100D1D000002DE9F04F33
:202B600085B00D460295044615F8011BDFF858A48DF801100022DFF8541488788DF8002054
:202B800004F5A47618F08AFD01902C219DF80100DFF83C24032804F2191804F1660B04F13B
:202BA000F40904F5C77700F0C880072800F0C8810F280CD0112800F03981182800F08F810B
:202BC0001A2800F04A811B2800F07981D8E199F80910880703D40F2188F8001059E0287869
:202BE000697800EB01223280A878E97800EB012272802879697900EB0122B280A879E9796D
:202C000000EB0122F280287A3072697AA87A01EB00227281E87A297B00EB0122B281687BC0
:202C2000A97B00EB0122F281E87B297C00EB01223282687CA97C00EB01227282E87C297D10
:202C400000EB0122B282687DA97D00EB0122DFF88403F28201788A0658BF1A2712D504F506
:202C6000AA70049071890391307A029021890191F0880090B38872883188204619F00AFC35
:202C8000C8B11E2799F80900410706D40F2088F80000204619F0FAFB06E13A460F212046AA
:202CA00019F0F0FBF0880090B3887288A179384613F0E0F9FFE004F18600718881800023F8
:202CC000B288C2800222F188018102704380A18EC91DABF81E10628E8188B1EB520F02BF87
:202CE000C188A28E914202BF0089E18EB0EB111F21D09BF81000012804BF9BF811000F28A9
:202D00000CD09BF8150000281CBF9BF811001A2804D00F218BF81A10FE2183E0FC21204690
:202D200019F0F4FBF0880090B38872883188A07919F0A4FBBFE0102174E099F80900C1075E
:202D40000BD499F800101A20012989F8010002D1FF220D213FE00D2164E000208BF80000B7
:202D60008BF80600012289F804202946082204F1B00019F07FFB0146022204F1B80019F020
:202D800079FB04F1A80701460822384619F072FB06460821384619F099FB04F19C07042268
:202DA0003146384619F066FB0421384619F08EFB04F1A00019F05AFB04F1980019F052FBA9
:202DC0008548018841F08001018099F80000012805D1FF220421204619F040FB6BE09BF80C
:202DE00011600F2E18BF142E07D00E2E18BF0C2E03D01A2E18BF162E13D19BF81070204655
:202E000019F028FB0421204619F080FB012F06D11A2E8BF81A6014BFFD21FB2102E03146C5
:202E200000E00421204619F071FB44E0287830761A286B78737659D11068A779431C4F4387
:202E40000020D855A379126811FB03F111440871A179707E09F06DFC2DE094F806C0106880
:202E60002E7811FB0CFC604400F1210506F01F032878B60930B16878F040C00702D5387A25
:202E8000042805D120221A21204619F0FBFA12E0EB701068A27911FB02F10144204681F84C
:202EA0002360002118F093FF28B99AF800004FF480410CF0B7F801208DF8000064E0A679A9
:202EC00013684E433344D88808B900265E701068A27911FB02F1014400200871EBE7287878
:202EE0006978884204BF084010F0070F48D19BF81100162805D13A7AA179134600200CF0F2
:202F00002BF8022038710121019841770123387A397BB870B28E19F099FA318E814206D367
:202F2000B28E397BB878012319F090FA0146B87A398040F04000B872012188F81F10BAE778
:202F400028780F2816D01A281AD1A07913684843184400234370A079126811FB00F150183E
:202F6000037199F80B0000F0FB0089F80B001A20A1796FE799F8090000F0FD0089F809000F
:202F80002046029919F05EFA9BF811001A2815D19BF8120017281CBF1028FC280ED19BF876
:202FA0001060204619F056FA012E03BF1A208BF81A00FB211A21204619F0A8FA9DF800001D
:202FC00005B0BDE8F08F00BFC70F0020780E0020B03C0020200E00209C0F00202DE9FE4F35
:202FE0000546DFF83004DFF830640278002A4CD0052A73D0062A00F08080072A18BF082A84
:2030000000F0F7800A2A00F0D881112A02D0132A70D0F6E1DFF804341878002119F092FA16
:2030200004001EBF606D407810F00C0F2DD0216DC0064CBF886CC86E0622016801F10805F9
:20304000A91C684618F080F9287800F00F0105291BD145096946C0F3801019F0EFF9002869
:2030600013D03168684619F0E5F90746316804F1380019F0DFF987420DD0606D4178C80651
:2030800004D440F2014019F0D1F9C0E1607B40F002006073BBE133681E2010FB07F6981963
:2030A00006226946C01D18F04FF9606D4178C806F0D5A17B0129EDD1DFF86403817848066A
:2030C00005D5E90703D4206D41F20A4102E0206D41F2044141804183418698E118F073FE1F
:2030E0000028FAD110F026FD012802D0012019F099F98CE112F0C1FE89E1DFF82853286889
:2031000019F08CF90400F7D020790328F4D1207A00F00F01072937D1C34800684169497A1B
:203120004A1E11425ED0617A04F10A035A5C02F03F02252A56DBA17A8A09012A52D111F063
:203140003F0F4FD0007C18F0F5F8E17ACA074CBF04F1110204F10B028B0748BF921D0B07F6
:2031600048BF921CC90648BFD21C1621127852094A43AE498B180A31EB608A5A428699893F
:203180008186DA89C2862DE000F00F00082829D1A17A880926D129B3A3480168087C18F0E8
:2031A000C9F8E17A074688071CD5062201F001015143601800F10C01684618F0C5F8207AF4
:2031C000C009FF280ED0694619F038F950B1306800F10D01684619F01DF918B9052138465E
:2031E00016F0F4FC2079032802D0002016F0B4FA03E1DFF83CB29BF802000024FF281BD0FB
:2032000018F098F8804608F16C09D9F8040019F005F92A460179032901D011000CD0836847
:20322000197801F003008D06009003D50124009818B9BFE01000FAD0E9E05D7803F1020A69
:2032400034B31AF8010B7B4B01902C2098F806C01F6810FB0CFC67444FF0010E87F805E079
:20326000002A1F6898F806E007F11A0C019F10FB0EFE07F01F070CF80E7098F806701B682A
:2032800010FB07F01844019BC3F38113C3761AD10098032808F217171AD0ADB199F8000002
:2032A00068B108F1F4000278012A0DD1594B1A78072A04D0082A04BFC078012804D13D21C1
:2032C000797001203870A2E05B4A1378012BFAD098F8940070B32D1FEDB253462A464046D3
:2032E0000FF094FB00281EBF54490878002807D13D21797001203870306819F087F886E088
:203300004F4801688847064698F80610DBF804204FF4D07041435018002280F8412108F58D
:203320009E700168807949080FF0C0FF45490A6830469047009803281ED04349486900785B
:2033400082070DD598F894004A691178002814BF281D2846CA0748BFC01C1AF8000000E04E
:20336000812089F808002A460098C3B29BF80200514605F091FE1DE09AF800001CB11B2857
:2033800004BF022D01251C2803D230490B5C9D4205D0B8700721404619F0B8F80AE01D488A
:2033A000017808295146404602D118F0C8FC01E0FFF7D4FBD9F8040020E0254C207830B340
:2033C000244D286819F02AF808B3017903291ED1017A8A0611D5807AE178C0F38112914214
:2033E00002BF217900F01F00814206D1A078002801BF607800280121A170286819F002F803
:2034000005E0002016F0A8F9862019F097F8BDE8F78F00BFC80F0020680F0020D50F002046
:20342000C00C0020BC0A0020540F0020E0070020780E0020B03C0020D20F0020513D0020CF
:2034400020220020242200203CEE010088F101004C3C0020AC0C00202DE9F84FDFF83454C3
:20346000A9780024FF2904BF002016F075F9A87817F060FF054605F1680605F5C977316880
:20348000086805F1900808B1EC8311E0B07B002804BFB07E00280BD198F80010002904BF41
:2034A0003878002804D1287F012804BF688CE8832989E88B4118491C6981284618F09EFF8D
:2034C00001281EBFDFF8D0030178012903D12989EC83491C69814FF6FF79B07E01280DD163
:2034E000B28B6989288918F085FF38B1298968894A1C93B298422FD0B08B23E098F8000082
:2035000001280FD1B8F802206989288918F072FF40B1298968894A1C93B298421CD0B8F8FF
:2035200002000FE03878012816D17A886989288918F060FF80B1298968894A1C93B2984275
:203540000AD0788892B2904206D04844688180B218F04CFF4844E883387801280FD128894A
:203560007988401C80B2884209DB7C793C71022038702346A979224600200BF0EDFC05F5B1
:203580009A71087920B128890021401CE9836881B07E012813D12989B08B4B1C9BB2984295
:2035A0000DD1688118F022FF804605F12E008188308C01FB080828460FF0DEFB03E005F141
:2035C0002E01B1F80480EA8BDFF8D092501C00FB08F040F6C41808FB00F100912B68D3F88D
:2035E0000CE07144D96099F80F30AD49DB0703D5B5F812C000230EE00B885B1C1FFA83FC3F
:20360000BCF1010F03BF05F59A7EBEF806C00CF2DC5CB5F812C00CFB00FC4FF4C87EBCFBA5
:20362000FEFC0CF1010CC5F814C00B80A86185F820204FF01C0BDFF86CA2AB79DAF8000063
:2036400000F108021BFB03F3D1582A68116100F10801AB79D26868691BFB03F3121ACA50BB
:20366000DAF80000AB7900F108021BFB03F3D1582A68916000F10C02A9791BFB01F10C303C
:20368000535C03F0F00343F002034354DAF80010AB798A1C1BFB03F30021D152387908B958
:2036A00016F05AF8DAF80000AA7900F1100138791BFB02F240088854A879DAF800101BFBC3
:2036C00000F00844002141743879042814D1A879DAF800101BFB00F001F110021031135C59
:2036E0003A7A43EA82030B54AA79DAF800001BFB02F2024420205074DAF80010A87901F1C7
:2037000012021BFB00F0002111526749A8790A6802F114034FEA401C143253F80C00AB7968
:20372000D5F814C05B0100EB4C00D050B07E02280DD10A68AE7902F11403760114329859AE
:20374000AB7995F82E605B0118FB0600D05005F12E0299F80F00C3075AD5DAF80000AE79DD
:2037600000F108041BFB06F60830A359AC791BFB04F4A3F5A8630351DAF80000AE7900F1F2
:2037800008041BFB06F6A3592C68A36000981B1A23610868AE7900F1140476011430A359D0
:2037A000AC79640103F5F6630351387904280BD10868AE7900F1140476011430A359AC79A5
:2037C000640103F5616303510868AC7900F1140364011859C5F83401344B186B0C68AE7972
:2037E0009288006804EB461742436424B2FBF4F408FB04F0A0F59660F8612D480278012A64
:203800002FD10868A97900EB41120120D0722FE0042C0BD10868AE7900F1140476011430FF
:20382000A359AC79640103F56163035138790B68AE7904280CBF4FF4AA504FF4E66003F1F6
:2038400014047601A359181A938808FB03F3A3F516739842C0D30821284616F0B7F901209B
:2038600016E0586A0968AA79407801EB4213D872A879DAF800102A681BFB00FB01EB0B001C
:20388000506007210B480170284610F08BF90020BDE8F28F780E0020D10F0020980C0020EA
:2038A0003C3D0020980E00209C0E00203CEE0100CC0F0020C80F00202DE9F04F0F463805DB
:2038C00089B018D5DFF8E4532888FF280ED0C0B217F030FD040009D0A079162118F082FDA5
:2038E000204617F01DFD204618F078FDFF20288087F40060D6E1F80504D513F04CFC87F469
:203900008070CFE1B80604D518F02FFA87F02000C8E1F8070CD517F0E9FE30B1002181604E
:20392000DFF88C03006800B1804787F00100B9E1380704D518F01BFA87F00800B2E1F806EA
:203940000FD50021002200230691059204910393029101920091022018F03CFD87F0100023
:20396000A0E1B8070FD500210023069105910491039302910191009101223C2018F02AFD23
:2039800087F002008EE179074FF01E08C94EDFF828A340F1CD80C94800220021089207919D
:2039A000007818F0CFFD0446C5488178FF2904BF002015F0D1FEA07A17F0BCFC05469AF8D6
:2039C000000095F82E91002805F5947B69D0606D807A022818BF032807D130680D3018F089
:2039E000F5FC10B93068C11D07915946484618F025FDA0B3606D807C3368002818BF0128C9
:203A000004D11946584618F015FD04E05A464946184618F0CFFDFF2843D018FB00F8306898
:203A2000404406225946C01D17F08EFC306810F80810404400F1010BC01D41F002090890E3
:203A40000622616DC87A00F0010085F82E01606D00F10C0105F5947017F076FC21E05946AF
:203A6000484618F0AFFCE0B130685A46494618F0A1FDFF2815D018FB00F8306840440D3097
:203A800018F0A4FC58B9306840440D3018F09EFC002801BF30684044417F012901D149F079
:203AA000020905F12C004B46017806914289120905920122698C0491C0880899029140084A
:203AC0000390CDF800B0079801900020A97918F081FCD5F89C017B498842A8790CBF0021E2
:203AE000012118F06BFC7848AB7902682C214B43134401221A73AB7904684B4323445A73B3
:203B0000AB7904684B4323449A73AB7904684B432344DA73AB79006811FB03F10144002050
:203B200008740720A9790FF0E0F987F00400B9E038060FD500210023069105910491039316
:203B400002910191009101223B2018F043FC87F08000A7E0F8045DD55C4930680C680D3050
:203B600018F034FC002844D13068C11D0D3018F021FC3EE0606D4178480704F13E0526D5D2
:203B8000287802281EBF03286878012830D16978306804F1380218F00DFD8146B9F1FF0F10
:203BA00015D0306818FB09F948440D3018F00EFC68B930684844C11D0D3018F0FBFB3068A2
:203BC0004844C11D062204F1380017F0BDFB2878022818BF03280BD130680D3018F0F6FBF1
:203BE00030B93068C11D062204F1300017F0ACFB2468002CBED13648DAF8042000784FF4F5
:203C0000805113F04FFD10B18E2018F0CFFB87F4805047E0B80505D517F09EFE2D49012000
:203C20000860FEE7780504D518F03EF987F4806038E0780405D5812018F0B8FB87F4804042
:203C400030E0B9042DD5244C206810B1002015F083FD4FF0FF3020600020204C0FF0EAFADA
:203C6000216851F8202F684690471D494A6B086BC96A24681B4B019200900293ADF810106E
:203C80006B46194A19491A4803921A4A07922568194AA8471949086004F0A6FB87F40050B1
:203CA00000E0002009B0BDE8F08F00BF78230020480F0020680F0020880E0020D70F0020E3
:203CC000780E00204DE50110B03C00204C0F0020C70F00207C052043380F0020200F0020E4
:203CE000CC1D0020CDB60100DDB601002C3C0020C82F00201EFB0080EC0A00201C0F00200A
:203D00002DE9F84FDFF884730446386808B90720B9E1C07A012804D0042015F071F801281A
:203D200001D10C20AFE1DFF868030078092818BF0A2804D00B281CBF0C280D2801D12120A3
:203D4000A1E1002C05D0207810B101280BD102E0E01C00F0BC80A078002818BF012804D064
:203D6000022818BF032840F0B2806078002818BF012803D0022818BF032874D1607A10F097
:203D8000050F70D00025A84640F67B4243F6FD7340F67746607A0121A940084236D004EB09
:203DA00008104189A1F1040E9E453EBFB0F80CC0ACF1040E9E4510D2614522BF018BB0F8FA
:203DC00016C061450BD3C189A1F1060E96453EBFB0F810C0ACF1060E964578D28C4576D359
:203DE000B0F812C0BCF5FA7F71DA808AA0F10A0EB6453FBF0CF1010C490001FB0CF1B1EB40
:203E0000C00F64D208F101005FFA80F86D1CE8B20228BFDD39684C61607A9E4906280CBFE1
:203E200001200020087002F0CBFE050008BF09200BD03A68A9791174E01C07D0A278E11C0B
:203E4000402008F03BFA08B10B201CE105F16101284618F063FB05F12C06B07B012803DC6D
:203E600028460CF0F9FD32E039686078DFF82882DFF828B2DFF82892DFF828A28872607821
:203E8000002818BF012807D1C0073B6854BF594641460622181D40E0DAF800000D3018F0EB
:203EA00095FA30B999F80010002904BF2078002813D16078C10754BF5946414618F082FAFC
:203EC00028B16078C10754BF5946414601E01220D9E038680622001D0EE0DAF800003B681C
:203EE000C11D0622181D17F02FFA6F4801680868DAF800300622D91D17F026FA6078DAF8D6
:203F0000001000F0010008706078C107DAF8000054BF594641460622401C17F015FA20784B
:203F200070BBA07885F82E0105F594780622E11C404617F009FAA178DAF80000E21C01F0FD
:203F4000010118F037FB0146FF291CBF99F80000002815D0A07840F0020085F82E011E2207
:203F6000DAF8003051431944487F48B901F10D0018F02CFA20B906224C49404617F0E4F959
:203F800018F010FAA86217F00DF8686204F11001DFF8008198F80000000104F114030A5AD0
:203FA000F280195A71812044428A328102223868417C3170B2700020B08017F01DFE0C2263
:203FC00090FBF2F20C2101FB1200401DF07304200BF0A6FE3968364A364B08604260836124
:203FE0003549416106200FF0BCFE39680120C872A87916F02FFE99F80000002801BF386859
:2040000041690A78012A0ED1807A02280BD1DAF8001001F10D0018F0D9F920B927484179AD
:2040200041F0040141711A4C2078C8B999F8001049B12348006818F0B1F938680068816907
:2040400041F4802181613868007C0DF0E7FF06202070012200210EF048FF17F0F2FE11E082
:204060003A68117ED068526998F8004002F10C03240140F6C4121D5B02FB050000F5166034
:204080000CF096FB0020BDE8F28F00BF540F0020C80F0020D90F0020480E0020400E002028
:2040A000880E0020680F0020D03C0020006E0210040C0020020080800D420100BC0A00209F
:2040C0006C0F00202DE9F041FF2805462AD117F0FDFC10F01F0F22D0042014F0C5FB08B1D0
:2040E000042016E0012014F0BFFB08B1012010E0022014F0B9FB08B102200AE0102014F02A
:20410000B3FB08B1102004E0082014F0ADFB20B10820BDE8F04114F08DBE15F01DFB0020F5
:20412000BDE8F08114F086FE5FEA000814BFD8F804400024012D46F2A81740F6C4160BD075
:20414000022D68D0042D00F0A780082D00F0F480102D00F03281E2E7012014F085FB0028A1
:204160001EBFB648006800281CBF8788BF00102014F07AFBF8B1102014F05CFE05466E682A
:2041800046B9022014F070FB20B1022014F052FE05466E68012014F067FB002818BF002C75
:2041A00007D0B068C11BA06816F080FA08B94046B6E72846B4E7022014F056FBA0B10220D5
:2041C00014F038FE06460120756814F04DFB002818BF002C06D0A868C11BA06816F066FAB4
:2041E0000028E4D030469BE7042014F03DFB08B10420E5E7082014F037FB30B1082014F077
:2042000019FE416800298BD1D1E7012014F02CFB002885D0CBE7022014F026FB58B1884806
:2042200001688848CA69017801EB81015318DF88774307F51667042014F016FB28B10420F0
:2042400014F0F8FD06460220BEE7082014F00CFB80B1082014F0EEFD05466E6846B9012096
:2042600014F002FB20B1012014F0E4FD05466E68022090E7012014F0F7FA28B1012014F098
:20428000D9FD064602209FE7102014F0EDFA08B11020B4E70220B9E7042014F0E5FA50B1EB
:2042A0006948016869484A69017802EB01139F89774307F51667082014F0D6FA80B1082056
:2042C00014F0B8FD05466E6846B9012014F0CCFA20B1012014F0AEFD05466E6804205AE7F3
:2042E000012014F0C1FA28B1012014F0A3FD0646042069E7102014F0B7FA88B1102014F02E
:2043000099FD05466E68002EE8D1022014F0ACFA0028E3D0022014F08DFD05466E68DDE7C3
:20432000022014F0A1FA28B1022014F083FD0646042049E7042069E717F039FD08B1D0F86B
:204340009070042014F090FA28B1042014F072FD0646082038E7012014F086FA60B10120D1
:2043600014F068FD0646082014F07EFA002818BF002C3FF437AF1AE7102014F075FA80B1CB
:20438000102014F057FD05466E6846B9022014F06BFA20B1022014F04DFD05466E68082060
:2043A000F9E6022014F060FA28B1022014F042FD0646082008E7082028E7032017F0F9FCA7
:2043C00008B1D0F89870022014F04EFA50B1022014F030FD0646102014F046FA002818BFD3
:2043E000002CC6E7042014F03FFA28B1042014F021FD06461020E7E6082014F035FA80B18F
:20440000082014F017FD05466E6846B9012014F02BFA20B1012014F00DFD05466E681020A1
:20442000B9E6012014F020FA28B1012014F002FD06461020C8E61020E8E600BFC43C00209A
:20444000500F0020D80F0020540F0020D90F00202DE9FE4F0422FF2101A816F07FFFC94E5E
:20446000B078FF284FF0000900F08A8116F062FF0546B07817F012F9064605F217100178DB
:20448000012908BF417800F0FE8005F1740A05F592789AF80E00022808BF8AF80E9095F84E
:2044A0009201022808BF85F892919AF81C00022808BF8AF81C90B8F80E1019B198F80C00D7
:2044C0000AF0B0FD07200FF04CFC6889AE4C288105F58D77A27AE079217B80184118E07AD9
:2044E0000818617B41180091B888401CB8803988009841183980798851187980D8F8000064
:20450000F8B1A24995F806E00B681C2103F10E0C11FB0EFE1CF80EC030F81CE0009971446A
:2045200020F81C101C2195F806C00E3311FB0CFC13F80C3000EB4300B0F84A105218A0F8D9
:204540004A2014F0A9FEE079002804BFE07A002805D1207B002804BF607B002843D0F07EA0
:20456000A6F80E90C009CB4610D0307F00F00701022907DA00F0F802401C00F00700104302
:20458000307703E0A879002117F01FFC2989E88985F810904118287FA981012804BF688CE3
:2045A000E883A979012207200EF09FFC607870B1012129779AF80200002804BF9AF80E00B1
:2045C000002804D19AF81C0008B9688CE88398F81400002860D0022804BFE07A002856D17E
:2045E00088F8149058E0A979002207200EF07DFCA5F81E90317F11F0070F02D1F07EC00961
:2046000003D0A879002117F0E0FBA07A38B1287F01284FF0010B24D1688CE88321E0F888B0
:20462000401CF8804FF0020B287CD0B1584908686E69AB7995F82E7000F11402760040F64B
:20464000C4105B0110FB076606F5F666D6500968A87901EB4010C17C01F0F00141F0040112
:20466000C174A8892989814206D088429ED2081A41F2AB02904299DA287C08B1052901D0AC
:20468000082100E03E21284615F0A0FA78E0607A10B1022188F81410E07BC1070ED520695C
:2046A0002968C86000F59070C86039480168A87901F11402400142F8009016E03448AB7970
:2046C000026802F114015B01C858C8F810002F48AB7901681C2001F108024343D0582968A1
:2046E000C860A5F81E9085F81C902A4A50690078810702D5A07B802800D181208AF8000063
:20470000254991F8200018B12946012017F04DFB28460BF01BFC02281DD19AF8070002287F
:2047200005DB01AA1D49284610F0B6FE8146284617F030FE012823D05FEA09000DD04A4621
:2047400001A9284611F092FA38B928460BF0FEFB012802D114E0012812D00121284617F0CF
:2047600015FEFEF779FE01280AD0284613F061F817F067FB009881B22A46584609F06EFD47
:20478000BDE8F78F780E0020980C0020980E00209C0E00203CEE0100143A002070230020A8
:2047A0002DE9F84F054605F14C0AE87D9AF80010DAF8047081424FF00008C0F0938105F1F4
:2047C000280407F1900907F17306C34640F08C80A87F7075E97FB175DAF80820527893076E
:2047E00010D5EA7FD30604D5C01E707501F0EF01B175C7F874B086F800800022B17D01F0CD
:20480000FE016AE1910608D4E08B00B1E07E3076E08B00B1206AC9F80000DAF808004178C1
:20482000CA070DD5E08B00281CBF206A002807D0C9F80000A17EE08B814238BF08463076D5
:20484000E87FC1060CD5B86B217800EB8100B863B86BA98CA63100EB81007867022002E088
:20486000C7F874B000203070DAF80800417811F0030F22D1007817F09EFA5FEA00081CD0A8
:2048800098F8B000032809D1E87F810615D440F02000E877B07D40F020000DE068B9E87F5B
:2048A00081060AD500F0DF00E877707DA0F112017175B07D00F0DF00B075E97F002201F051
:2048C000FC0128460AF03AF9B8F1000F36D0E87F810633D598F8B00002282FD1414628462D
:2048E000BDE8F44F17F079BAE87F81060AD500F0DF00E877707DA0F112017175B07D00F007
:20490000DF00B075DAF808004178C80717D5B07D717D00F0F700891E01F03F0182075CBFC7
:20492000891D40F00200420644BF491E00F0BF00B0757175C9F800B086F81880D2E09AF868
:204940000020E87D121AD2B28907009240F18280012A07F140083FD1B86BA98C00EB81008E
:20496000B863A87F00F03F00A8777075E97FB175DAF8082053785A0703D5801F707501F0C1
:20498000FD01B1750023707DE17E00F03F00421898F80000521CC0F3800192B200F0030092
:2049A00017F084FD00F59B70A8841E21A88C90FBF1F18AB2B17D01F0FE0128460AF0BEF8EB
:2049C00086F800B0E08B00B1E07E3076E08B00B1206AC9F8000085E0B86BA98C022A00EB4E
:2049E0008100B86326D1E87FC10706D5707D811F7175B07D00F0FE00B0750023707DE17EF8
:204A000000F03F00421898F80000521CC0F3800192B200F0030017F049FD00F59B70A8842B
:204A20000022B17D01F0FE0128460AF087F8607FA8F81A00617F0098491C081AC0B201281C
:204A40001CDDB96BAA8CA63201EB820179670221317014E0B86BA98C00EB8100B863617F65
:204A60000098081AE97FCA06C0B207D5B96BAA8CA63201EB820179670221317090B395F8E1
:204A80001F80A97FD9F80020E37E1A44C9F8002028F00108DAF808205278530748BF28F060
:204AA0000208920748BF28F00808012807D1207F3076C7F874B028F0100886F800B001F0AC
:204AC000C004404617F0F6FC00F03F002043707586F81680002208F0FC012846BDE8F84F97
:204AE0000AF02CB8BDE8F18F2DE9F04F8FB0074618984FF0000C002A01938DF8200000F084
:204B00008D810AA80E464FF0200A002400F1100ECDF800E0114611F8010B25280E910CD00C
:204B2000002800F07781022EC0F00C81013E002F00F0078107F8010B04E15378901C0E900D
:204B40002D2B07D14FF00109D01C8DF80D900E90937803E04FF000098DF80D90302B05D1A7
:204B60000121069110F8011B0E9002E01946CDF818C04FF0FF322A29CDF808C004922CD1F9
:204B8000019D29680A1D2A60D1F80080CDF80880B8F1FF3F10F8011B0E9007DC4FF00109CA
:204BA000C8F100088DF80D90CDF808802E2925D1CDF810C0024612F8011B2A290E9220D191
:204BC000019D29680A1D2A60096821EAE17BCDF810B0417802300E9027E04FF00008A1F12F
:204BE0003002092AE0D810F8012B08EB880501EB4501A1F130080E901146F0E74FF0FF3BA3
:204C000013E04FF0000BA1F1300009280AD812F8010B0BEB8B0501EB4501A1F1300B0E9247
:204C20000146F0E71046CDF810B0302B41F0200306BFCDF81880424600226C2B06D1012170
:204C40008DF80C1010F8011B0E9001E08DF80CC0CDF81CE00AAB6929CDF814C0099301D0B1
:204C600064290CD1019B1868011D19609345C8BF5A46016870466FF0090306921EE075295A
:204C80000AD0A1F16F03092B5FD8DFE803F0058C6A6AA76A6A6A6A05019D2868031D2B607F
:204CA00078294FF0080308BF1023752908BF0A239345C8BF5A460168069270460EF0CAFE01
:204CC000DDF800E00990AEEB00010591A8EB01004FF0000CB9F1000F02901CD109E0022E26
:204CE00006D3013E1FB107F801AB029800E00027013401380290F2DA0DE00998022E07D31C
:204D0000013E27B1007807F8010B099800E000270130013409900598411E00280591ECD1DB
:204D20009DF80D0078B10298013802900BDB022E05D3013E17B107F801AB00E00027013467
:204D4000F1E7002701340E9AE4E6632909D1019A1068011D11600121006805918DF82800D8
:204D6000B4E70138022E0E9052D36FF000400BF1010186426FF0004038BF30460246B345BB
:204D800038BF0A46002908BF024604920EA9019A02AB06F071FBDDF800E09DF80D90DDF8E1
:204DA0000880059992E7019A10231068011D11600821082206919DF8201000290168704688
:204DC0000EF048FEDDF800E0A0F101014FF04002099100F8012CAEEB010176E7019A1068FC
:204DE000011D11609DF82010006800290D49002808BF0846099016F00DFD0146834538BF8C
:204E000059461BF1010208BF0146DDF800E05CE700215BE70FB100203870A44660460FB0A4
:204E2000BDE8F08FF8D801002DE9F84F05004ED0DFF8EC8298F80000092818BF0A2804D01A
:204E40000B281CBF0C280D2801D1212065E1A878002117F077FB040008BF4220F6D0B14FD5
:204E6000A978DFF8C4A2397098F8000010B9A8788AF8000004F14806F068417801F01201D8
:204E8000022902BF706900280C2012D0607AF0B1A07B012804D1B5F8030008B1812816DA81
:204EA0006878402813DA204617F06CFAB06808B9072032E1B561287801281FD1A07B0028C5
:204EC0001CBF0128042819D19848007808B9122023E197494A78824208BF0920F8D0F068F3
:204EE000417848070AD504F1220180204A7F04F1380107F0E3F908B10B200EE1687808B9D5
:204F000011200AE12878DFF82C92DFF82CB2012840F0B28000212173F166217A012903D15B
:204F2000B16968794871F7E011200EF01AFF012000212072E172617325460AF0F1FE60608F
:204F4000DBF8000080477D4A0146106802E06A68426000680028FAD10846D9F80010884782
:204F60006968774848610021387816F016FF3978012211200DF0B9FFF0684178C80605D599
:204F8000284601F075FA010024D0C6E0688C16F056FF85F82100F068007816F00CFF0400D6
:204FA0001CBF94F8B000002807D0E87F40F02000E877687D40F018006875284616F043FF05
:204FC0000100E2D134B194F8B000012804BF284616F0FFFEF0684178C8071CD505F1420492
:204FE000A18800291CBF3068002814D022788A4211D20F2017F0C2F968B1F06801788DF837
:2050000000100F20A288ADF8012021788DF80310694617F0AFF998F80000A0B949490878D7
:2050200000281EBFF068417811F0030F03D04648006817F0B3F9112088F80000012129725D
:2050400016F0FFFE68E0284613F0A6FE00281CBFB168002960D0AA7B012A04D02A698088BC
:2050600002EB800202E0486E2A69821895F8B81010460BF09DFB4FE0207A00284CD0DBF8DE
:205080000010884705463878012116F086FE00202E4920720A683E7811460B68187A0028B5
:2050A00002BF586D0378B3421FD0C9689142F4D138789AF80010884224D116F017FB616850
:2050C00088421FD114F0E8F840F2014017F0AEF91F49204A204808600121107809F0A2FF2B
:2050E000D9F800102846884716E01C4E30780128DEDD084613F080FB16F020FB3078411EB2
:205100003170D5E7204617F031F9D9F8001028468847204613F0C0F80020BDE8F28F00BF57
:20512000C80F0020D60F0020D50F0020D40F0020780E002024220020202200204C0F002083
:20514000258D0000880E00206C0F0020C43C0020480F0020C70F00206D9800004E3D00200F
:205160002DE9F043044685B0084611F801CBC24FC24B2C22BCF1070F4FF0000904F5A476BA
:2051800004F1760504F1FD0800F03181BCF10F0F0CD0BCF1110F00F0D080BCF11A0F00F089
:2051A000E280BCF11B0F00F0128143E198F800309A0703D40F2188F81C1075E028780128DD
:2051C00004BF68780F280CD0687908B16A7812B12A7B012A07D1580703D40F2188F81C1020
:2051E00062E0232265E010B16878012802D0A87E012807D1580703D40F2188F81C1053E0DB
:205200002A2256E008784A7800EB022333808878CA7800EB0223738008794A7900EB02236E
:20522000B3808879CA7900EB0223F380087A30724A7A887A02EB00237381C87A0A7B00EBD4
:205240000223B381487B8A7B00EB0223F381C87B0A7C00EB02233382487C8A7C00EB022341
:205260007382C87C0A7D00EB0223B382487D897D00EB0122F28204F5AA70049071890391A7
:20528000307A029021890191F0880090B38872883188204617F0FEF8C0B198F800004107F4
:2052A00006D40F2088F81C00204617F0EFF885E01E220F21204617F0E5F8F0880090B38893
:2052C0007288A179002010F0D5FE7DE07088A882B188E9820221F08829742883A5F8129082
:2052E000A18EA88AC91DE981618EB0EB510F02BFE88AA18E884202BF288BE18EB0EB111F39
:2053000016D0687900281CBF68781A2803D00F21A972FE210DE0FC21204617F0F7F8F08886
:205320000090B38872883188A07917F0A7F84BE00021204617F0EAF846E00F7837761A2FF2
:205340004978717676D11868A779411C574301F807901968A37912FB03F20A4482F804903C
:20536000A179707E5DE094F806C018680E7812FB0CFC604400F1210C06F01F019CF800000F
:20538000B60940B19CF80100F040C00703D594F89601042805D120221A21204617F072F880
:2053A00012E08CF80310A179186812FB01F28118204681F82360002116F009FD20B9387819
:2053C0004FF4804109F02EFE4FF0010936E0A179186851430144C88808B981F80190A1799D
:2053E000186812FB01F2811881F80490ECE709780F2919D01A291DD1A1791868514301446E
:205400001A2081F80190A1791B6812FB01F2991881F8049098F8021001F0FB0188F80210CC
:20542000A17907F086F9CFE798F8001001F0FD0188F800100146204616F094FF68781A289F
:2054400015D1A878182818BF002803D0152818BFFC280CD12E78204616F0FCFF012E03BF21
:205460001A20A872FD211A21204617F04FF8484605B0BDE8F08300BFC70F0020B03C0020AF
:205480002DE9FF47AA48017806294FF0010840F04981A84EA84F3068A84C016801F10805F3
:2054A0004FF0FF09297801F00F00072802BFA8788309012B40F09780002800F09480E87869
:2054C000C30707D50622291D684615F03DFF2878C0F38019E978880737D5062201F00101C6
:2054E0002B1D5143194402A815F02EFF2878C009FF282AD002A916F0A1FF002800F08F8095
:205500002068807A022818BF032804D138680D3016F05CFF002840F00081386800F10D0152
:2055200002A816F077FF002874D02068062202A9001D15F009FF707940F00400707106222E
:20554000386802A9C01D15F0FFFE4846FF2800F0E480694616F072FF1E25002800F0A8806F
:205560003968684616F066FF2268014650690078FF2900F08280002815FB01F563D1107C67
:2055800015F0D8FE90F82E11022918BF032901BF3B685A5D01F001018A4253D100F594793C
:2055A000581906224946401C15F07EFB30B906224946634815F078FB002843D020684169B9
:2055C000386840190622C91C401C15F06DFB002838D0707940F00800707106226946484665
:2055E00015F0B2FE43E011F00F0F1CBF01F00F02012A27D10622A91C684615F0A5FE2878D1
:2056000000F00F010129C0F380199ED1062205F1080168E73068016800220A7184E02168A4
:20562000887A022818BF032805D138680D3016F0CDFE002889D12068807A002818BF01288C
:205640003FF483AF69E0706939684A5D4919491C083816F083FE3B490A7890425DD070690F
:20566000396849196A46C91D083816F073FE3868401906226946C01D4DE000284DD1107C2E
:2056800015F058FE0746206840698278914544D1C11C0622684615F007FB00283DD0707974
:2056A00069F3C30070710622694607F5947032E021684A69107880BB087C15F03BFE824678
:2056C0009AF82E01022818BF032826D138686A46494616F06FFFFF281FD015FB00F53868D8
:2056E00041194A7F012A04D00D30401916F06EFE98B120684169386840190622C91C401CA3
:2057000015F0D2FA48B1707969F3C3007071062269460AF5947015F017FE306801680020C1
:20572000087101E04FF00008404604B0BDE8F087C80F0020BC0A0020680F0020540F00207B
:20574000006E02104F3D0020F8B5144600254FF48067DFF89862C21B84B006F1880337D05C
:20576000921E3CD0521E44D0521E4AD0521E50D0521E54D0521E00F07A80921E00F07C8045
:20578000D21E00F0AC80521E00F0B780921E00F0C080521E00F07B80521E00F0C180521E1A
:2057A00000F0CF80521E00F0D280521E3ED0521E56D0521E4BD0921E00F0DE80921E00F0BB
:2057C000E280521E00F0ED80521E00F0F98000E101290FD12078022817DC707003E1012933
:2057E00008D12078022810DA0028B070F6D1B074E3E0012940F0EB802078052805DAF07065
:20580000F1E001296CD12078022880F2E0807073E9E0102964D110222146754814E001292E
:205820005ED12078022863DA3071DCE0012957D1207802285CDA00287071F6D00120F0743F
:20584000602206F12801184615F07EFDCBE00129FCD12078022802DAB07115F04FFFC2E072
:2058600001293DD12078022842DAF072BBE0012936D12078F073B6E0002931D116F02AFEFA
:2058800010B9FAF718FE1DE00120F075ABE0072926D10622611C02A815F0A8FB0095002354
:2058A000217801AA02A80AF0ADFBB0B9F07A10B916F010FE10B1F07A012808D19DF80400E2
:2058C000FAF70AFE0546502014F030FF1EE0716A9DF804200120885485E0342583E0012907
:2058E00075D1717C2078022903D0C11F0A2902D36DE010286BD1307475E0012967D1B17DAD
:205900002078B075002908BF01286CD1FAF75CFD69E001295BD12078032858DC307562E0AD
:20592000012954D12078022851DC00284FD07074022803BF102030740120002016F006FDF4
:2059400051E0012943D1207815F092F94BE0707900283CD1602908D1002C38D060222146E8
:20596000184615F0F1FC012004E001292FD1002C2DD02078F07436E0012928D13CB32078C3
:205980001C4908702FE011BB16F0A4FD30B9FAF738FE0546502014F0C9FE24E00120307647
:2059A00021E0012913D12178022910DA012904BFB078002816D0B174084615F0A7FE12E0F8
:2059C000012904D120780228B8BF70750BDB182509E00F2806DA022904D1218812F04AF89A
:2059E000054600E00225284605B0F0BDA4190020CC3A0020553D00202DE9F04F89B0A04E54
:205A00000546A04F30780328387040F0AC8000203070387002AC204616F066F9204600210D
:205A200014F00DFF984CB8602E21204615F0B0FC4FF0FF30A0822061E06013F06FFD002014
:205A4000294611F0D5F907F11001F86016F02EF9D7E905128D4DB1FBF2F0C0B2022828BFB8
:205A6000022020702870B2F5005F7AD1B1EB403F77D3F968002974D04FF6FF7100274FF03D
:205A800088586FF0030B61808149616087426DD2FEB2002108AA0423304615F04FFD07EBE2
:205AA000470004EB800A0898D14600F47C0129F8160FB1F5402F04D000F07F41B1F1164F18
:205AC0003ED1C0F301418AF819106FF0FD0151FA80F21021022A31D3C2B27E2A2ED003A8D7
:205AE00012F08EFD304600214FF088524FF400534FF4005515F022FD1BFA85F5A8B250F8E6
:205B000008104A1C01D10328F6D801220126D3B2042B06D8CBB2FF2B18BF16460132090A40
:205B2000F5E740F808105C480399006842685B48904755FA86F199F80000544DAAF81C10A7
:205B4000C0B2702807D0782803D0FE2805D07C2804D1E77002E0277100E0A77028780137DD
:205B600094E70120307009B0BDE8F08FE178FF2903D0DFF81081012529E02179FF2904D08B
:205B8000DFF80081E170022521E0A178DFF8F480FF290ED00131B1FBF0F202FB101000EB02
:205BA000400104EB8101898B09B1E070EBE7FF20A07000250020E5700BF0ACFC98F8001037
:205BC00008437E2188F80000002012F079FFA078FF2813D12D48E17800780131B1FBF0F298
:205BE00002FB1010A0700BF095FC98F800100843FE2188F80000A07812F062FF2548E27820
:205C0000022D057002EB4200627004EB8000818BE18028D0012D2BD103AD002788B2182890
:205C200026D30739D0B22A4689B20CF0A9FC9DF81700400717D5E088BDF81A10E6782A4669
:205C400003230097401A073881B2304606F016FAE27820B9BDF8181009B196420BD09642EA
:205C600006D0E188DAE701206071002000F018F898F8000077E79DF81C0010F0ABFEF7E7EC
:205C8000D3220020EC200020E43900205A3D0020FF0000205B3D0020D8010010004003408C
:205CA0002DE9F04F97B0DFF884828246D8F8040018B18047002800F0D9809D4F01200021A0
:205CC000042300247E78F873BD7808AA304615F035FC9DF82200800703D07879002800F06B
:205CE000C68030460621F8224FF0F80914F09AFE06EB460407EB840080F818909DF8200045
:205D0000702803D03046702112F0DAFECDF810A0069608AA2846002104234FF0000915F071
:205D20000DFC9DF82000FE2803D02846FE2112F0C7FE28460621FE22FE2614F073FE07F112
:205D40001600BA7888F80090059500EB8401C9880192798205EB4501039100EB810101F8D2
:205D6000026F7E78029106EB460100EB8101B1F806A002EB420100EB810030F8061F0791B4
:205D800000900EA812F03CFC0DF124090FAD1FFA8AF0172860D398F80000002860D1AAF113
:205DA000070B30464A461FFA8BF739460CF0E8FBBDF8324004F11000B8421BD89DF82E00F6
:205DC000962817D19DF82F00C10742D1800740D5ABEB0400C1469DF82D20214633461FFA66
:205DE00080F840460EF07EFA08B3C846AAF1080B0DF124095C46A0B216282ED93628A4F161
:205E0000160730462A4688BF2027E41BBBB2A1B215F094FB3804EED015FA87F010F8010C09
:205E2000962801D0013FF5E707EB040AAFE704F1070A079F41491FFA8AF313FA87F00A1AAD
:205E40003046414615F07AFB5744C8460DF124090797ABEB040A9AE7D34698F8000050B18A
:205E600034480E990068426833489047002420B217B0BDE8F08F079E019C1021C6F500523A
:205E8000A6F1100083B2C1F20012204612F0D4FB98F8001008430E9988F800002548006843
:205EA000426825489047224D00980123B5F91220697B06802046A5F814B02E8213F018FBF2
:205EC000B5F91420A97B2046022313F011FB049A002A08BF1022288A7C21C0F5005090423B
:205EE000B8BF7821059F384612F0EAFD069E30460BF010FB88F8000038460621FC22FC2404
:205F000014F090FD0298FE21AE70EF706F700470039805EB8000808BE880304612F0D0FDA4
:205F200000206871E888C0F50054A0E7EC200020E4390020D8010010004003400020001162
:205F40002DE9F04F8DB0044600209A4616460F46CDE90B00CDE909008748856880460CF0B6
:205F600095FD1C2803D00CF091FD1B281BD1308840F60201884218BFB0F5C15F03D1F07B29
:205F8000022810D93EE043F6070188420BD196F82400032807D33069784940F0806020F0B8
:205FA000604088422ED100206FB366B3387825FA00F0C00726D03046002115F016FF704838
:205FC000C4E90176006880B109A800900CA90BAA0AAB304606F0C6FC0B980B214FF6FF72F1
:205FE000502314F0F3F9FF280CD015F091FC654F06467878012802D840B1012070E03046DE
:2060000015F045FE00200DB0BDE8F08F06F01EFC5D480DF10409016841F0020101605B48D6
:20602000C8F80000484615F0D9FADFF864B15A494A469BF801009BF800500390554828301C
:2060400012F0A6FD554856494A4612F0A1FD484615F04CFADFF84C81534A19214B460295B3
:20606000404611F0C1FE514A08F11C001A214B4611F0BAFE4E484F4915F0E0FD4E484F4967
:2060800015F0DCFD4E48006810F4402F06D04D4A07F128000421002313F05AFF9BF80200EB
:2060A00010B10D200AF0CEF908F1400014F0EFFF08F1380014F0EBFF434900200722387664
:2060C000B8843862386181F860200521C7E902103E49F96138700420002114F017FA78789D
:2060E0002C4941F8204001307870304615F0CFFDBAF1000F06D10DF1040A3549202250463F
:2061000015F0C6FEDAE90012BAF81000DAE90635002AB2FA82F608BF40F6C41262612160BC
:2061200060832563760926764FF4FA76C4E9036201226276274AC4E90722C4E90923DAF827
:206140000C0000B12062DAF8140000B16062DAF8080000B1E06104F13800C82115F018F9AF
:2061600004F15000002114F001FA1B4904F1B80015F064FD204646E7CC2108400F00000567
:2061800000230020C41B002000200940110000E0F0F20100681D0020CDAA01000C390020FE
:2061A00031FA0000301E0020254C01005536010088380020759F01004438002079AA010093
:2061C000B44F0050AD630100E0340020D1D00000D4F001003FB10100B9BC010082492DE979
:2061E000F043824C824E20700A22002008600D23804840F2262102704380818085B07E48E8
:206200000660B77E7D480770FF2FF17E417008BFFF29327F8270737FC370B57F0571F67F83
:20622000467114D1FF2A08BFFF2B10D1FF2D08BFFF2E0CD172490A7802704B7843708A78A3
:206240008270CB78C3700A790271497941716D4902786D4D6D4E6E4F0A7043784B70827820
:206260008A70C378CB7002790A714079694A4871FF2028706870A870E87028716871002002
:2062800065490880F06B6549407808706449F06B007808701388634863490380F06BC06C9B
:2062A00008606249F06B90F83C0008706049F06B90F83D0008705F49F06B90F86000087090
:2062C000F06B406901795C484A1E0270F06B5B49C0783870F06B8069086008B913F03CFA3D
:2062E000F06B5749C069086008B913F035FAF06B416D54480C2215F027F816F023F8F06BAC
:206300005149006A086008B913F026FAF06BDFF83C81406AC8F8000008B913F01DFAF06B9E
:206320004B49806A086008B913F016FAF06BC06D00B1012008F041FF01F01CFA07280AD100
:2063400006F04CF820784FF4804108F06BFE002013F002FA44E03F480168884781460DF040
:20636000B3FED8F8000001688847684615F03EF9D8F8002004208DF80000694652F8043FA5
:20638000002098473449086010F050F9F068334A01883878324B0143118048461968884792
:2063A0000C21304815F065FD284615F0C7FF15F0C1FF2D4800214FF6FF7201608280817132
:2063C000F06B90F858102948006815F05FF90121FF2015F0E2FC20784FF4005108F022FED4
:2063E00005B0BDE8F08300BF380F0020C70F0020B64F0050700E00203C0F0020400E0020E8
:20640000E8120050500E0020480E00203CEE0100C40F00207A2300209E0F0020C60F0020A1
:20642000D40F0020383D0020B43C00204F3D0020503D00204D3D0020CB0F0020200F002068
:20644000240F0020583C0020280F00202C0F0020300F002020220020BC3C0020A00F0020DB
:2064600024220020FC0D0020800E0020D03C00202DE9F84F0446002000900CB913F06CF92F
:2064800004F1500569462E68204609F027F808B9072015E1A04641F28839DFF828B2DFF8AF
:2064A00028A2002469684A7A1820604301233718A3401A420AD098F80E103AF81100388049
:2064C00000211BF80420BA73F97302E040F6010038800021798007F118007860387B00F055
:2064E000EF00387340F08000387398F80E10012916D1397B002C0CBF0220052001F0F00114
:206500000843387324B916F021F800F57A6000E04846B860787B00F0F00040F0020017E038
:20652000002C0CBF0221002100F0F0000843387324B916F00BF800F57A6000E00020B8607D
:20654000022C797B0CBF0120022001F0F00108437873641C06F14800386106F16801032C0C
:2065600079619FDB98F80E000024012808F1A80718D108F19C0070631822314614F0E4FE4C
:2065800006F118002865C5F85490397801F0F00141F005013970787800F0F00040F0020049
:2065A000787000E07463B068C8F8100047480178397415F077FFB064454881690978CA0747
:2065C000826912784CBF1F210F2193078269127848BF41F0200153078269107848BF41F05E
:2065E0004001020706F14C0248BF41F08001117054706968887C00F0030008F13E0150704E
:206600000B7863F3820050704978947061F3C3005070D47040F0100050703465746508F114
:206620003800F06598F80E00012818BF042815D0A86830B1B0F803009070A968D1F80500A3
:206640003065E86830B1B0F80300D070E968D1F8050070651F4801684868F06508F1300097
:20666000B065D07D00F0EF00D07540F08000D07500F0F00040F00600D0752869B0F8030008
:2066800000280EBF144849F64041484370661349087838B15078117840F0400001F0FE0112
:2066A000507011700E498B78507859064CBF40F0200000F0DF005070009808F00FF8002077
:2066C000BDE8F28F506E0210F46B02104A3D00203CEE01006C0F002000204E00880E0020C2
:2066E000C00C00202DE9F84F9148924E0278924F112A4FF0010B02D0122A0DD013E18F4DFC
:206700002878002115F01EFF8D490446087810B100220A7009E1002C00F0F8808948DFF873
:206720002882DFF8289238600122297811200CF0DCFB206D616D009141F60801009A53782D
:20674000DA0640F1CD80054641F204426B8893421FBF6B8B93426B8E93424FF4A05A19D0B2
:20676000A37B012B04BFB4F89EC0944512D0B5F802C041F20A4294451FBFB5F81AE0964520
:20678000B5F832C0944505D0012B04BFB4F89E30934203D13280C7F800803AE00022182332
:2067A0005343EB18B3F802C0A6F800C0BCF1010FF5D0BCF1000F60D0ACF1020CBCF1010F9F
:2067C0005BD940F2FE3EBCEB0E0C1AD04FF48062BCEB02025DD04FF4406EB2EB0E024CD0B5
:2067E000921E012A49D9121F47D040F2FA3EB2EB0E0269D0521E5BD0D01E4AD0001F48D02A
:2068000067E02B8840F6010C634536D1521C022AC5DD386840452FD1A86C0168A86C01F1A8
:20682000080401680879032804BF95F86C0001281AD1D4F80E0000281CBF208B002813D0D4
:2068400094F8220010F0E00F0ED104F11E0015F06DFD012808D1608B218BA28B401C89008F
:206860004843B0EB021F58DBA6F800A0C7F80090A86C0168002008714FE0A07B01281CBFAD
:206880000428A6F800A0C7F8009001200BF009F8BFE7A07B012806BF41F202425A80A3F887
:2068A00002A0308888420CD100200AF0FAFF08E000994A78D1064CBF816CC16E08680021F2
:2068C0000171C7F80090A4E7002012F045FF832003E0002012F040FF842015F02FFE24E045
:2068E000428E328041F20443D21A0CD0921F0AD0408888420CBF002001200AF0D2FF41F2AD
:2069000006403080C846C7F8008006E015F04FFA58B1C0880E493080396001210D4A10780E
