:20000000003C0120D59300007D9C00007D9C00007D9C00007D9C00007D9C00007D9C000085
:1C0020007D9C00007D9C00007D9C00007D9C00007D9C00007D9C00000D2E0000F3
:20003C002DE9F84305460C46480414D4A00025D4A0075FD4600500F18180200500F1088119
:20005C00200700F13D81600040F1F88006F0ACFD24F08044F2E00AF005FFDFF824140F6DD3
:20007C003FB1D7E90A1202F0E04201F00A0189184BD00AF0E5FF24F48044DFE0BB48DFF879
:20009C000474016841F080010160B878012804D1042009F03FF80020B8700AF0E3FE06465F
:2000BC00B348406D016804208847DFF8E0130A68904219D12A7EBAB1FA68AAB1DFF8C003BE
:2000DC00806C002800F09780C16840F603020988914206D0C06840F604010088884240F066
:2000FC008A8005F1140088E040F6C4120860C5E9042284E002F0EAF9DFF88403006C0028F5
:20011C0040F09D8024F0020498E0D7E90A65D7E90A12AA43B143C7E90A120AF091FFB86882
:20013C000028A8D056EA0500A5D0D7F808C03869B7F9301032462B46E0479CE70AF092FE04
:20015C00054609F065FF002800F0B780CC48876B002F00F0B280DFF82C830420CC49002254
:20017C0088F81800C6480AF0C2FC0AF07BFFC9480AF063FFC4480068006B8047C8F81000AE
:20019C000125042088F8025009F0DAF9386990F82810C8F80400490703D5436A042100221A
:2001BC009847012007F094F8D8F80400457604F04BFFD8F8040081680B461A465B684BB1A6
:2001DC001E88A6F60306072EF7D805FA06F616F0830FF2D0537B03F0F0030133537300238E
:2001FC00FD6853602D88A5F60305012D00F28A80C8F810309FE005F1100008F00DF9304650
:20021C000AF01EFF09F0B4F978B12E6A28466FF4807100224FF00073B0479948806B10B12A
:20023C0006F0C2FC01E044F00204EE692846002100224FF08063B04724F0005434B1984885
:20025C0021462830BDE8F8430AF051BFBDE8F8838C4EB078012804D1042008F05BFF002023
:20027C00B07009F085F938B170686FF4807100224FF00073056AA847306950B182480068B8
:20029C00006B804732697168801A000BC860002030617B4D8149002228460AF028FC0220BC
:2002BC003076286C20B17E48022128300AF01FFF06F07AFC24F40064C0E70AF0D3FE41E043
:2002DC000AF0D0FD054609F0A3FEA0B1DFF8B48198F8000000070ED498F9000000280AD4E9
:2002FC00684604F055FF08B1009820B1DFF8B49199F8610048B30AF0B5FE06F055FC24F0B9
:20031C0008049BE7034633F8385FA5B190F8445090F8456005F0F00580F8445006F0F005A8
:20033C00013580F8455000255360C5634587507B00F0F000507358480022C26101600120BD
:20035C000AF020F824F4806478E700260127602E10D009EB0600817A31B18772407A07FACD
:20037C0000F0C0B208F0F0FE2036F0E7CC2108408C010010032088F8180046480AF05DFE7C
:20039C000AF070FE444F3E4D0022786900207861F968F860284644490AF0A9FB3A48006883
:2003BC00006B8047D8F80C10D8F82020411A02EB1130B0EB113F38BF4FF0FF3098F8241056
:2003DC00C8F8200021B1D8F80810B0EBC12F20D909F0E8FFB8B140F60900414621F83C0F70
:2003FC00002048804A7B02F0F00201324A730A7B02F0F0020A734860F8613960B8F83E00F2
:20041C0010F4406FFAD00020C8F82000012088F8240007F019FD254800210160022000213F
:20043C0009F0B0FF022008F075FE102004F054FC98F8010020B9D8F8040050300AF055FEEC
:20045C001B48807810B90D2004F046FC98F8250028B1002088F82500052008F05BFE002010
:20047C0088F818001348C8F81C000220B5F85610B5F85420914208BF072006F021F93CE747
:20049C00241C0020201A00208C010010541E002009A00000983E002000100440E53A000045
:2004BC00C01B0020703C0020296C00000000046058DC0000D13500002DE9F04F89B0A04EAA
:2004DC000546A04F30780328387040F0AC8000203070387002AC20460AF0DCFD2046002119
:2004FC000AF08CF8984CB8602E2120460AF078FB4FF0FF30A0822061E06009F0C5F900201C
:20051C00294607F0C5FC07F11001F8600AF0A1FDD7E905128D4DB1FBF2F0C0B2022828BFDD
:20053C00022020702870B2F5005F7AD1B1EB403F77D3F968002974D04FF6FF7100274FF0B6
:20055C0088586FF0030B61808149616087426DD2FEB2002108AA042330460AF0A3FB07EB14
:20057C00470004EB800A0898D14600F47C0129F8160FB1F5402F04D000F07F41B1F1164F91
:20059C003ED1C0F301418AF819106FF0FD0151FA80F21021022A31D3C2B27E2A2ED003A850
:2005BC0008F0FEFB304600214FF088524FF400534FF400550AF076FB1BFA85F5A8B250F8B4
:2005DC0008104A1C01D10328F6D801220126D3B2042B06D8CBB2FF2B18BF16460132090ABA
:2005FC00F5E740F808105C480399006842685B48904755FA86F199F80000544DAAF81C1021
:20061C00C0B2702807D0782803D0FE2805D07C2804D1E77002E0277100E0A7702878013756
:20063C0094E70120307009B0BDE8F08FE178FF2903D0DFF81081012529E02179FF2904D004
:20065C00DFF80081E170022521E0A178DFF8F480FF290ED00131B1FBF0F202FB101000EB7B
:20067C00400104EB8101898B09B1E070EBE7FF20A07000250020E57004F02AFE98F8001037
:20069C0008437E2188F80000002008F029FDA078FF2813D12D48E17800780131B1FBF0F26D
:2006BC0002FB1010A07004F013FE98F800100843FE2188F80000A07808F012FD2548E2787C
:2006DC00022D057002EB4200627004EB8000818BE18028D0012D2BD103AD002788B218280A
:2006FC0026D30739D0B22A4689B205F00BF99DF81700400717D5E088BDF81A10E6782A468B
:20071C0003230097401A073881B2304602F0E2F9E27820B9BDF8181009B196420BD096429C
:20073C0006D0E188DAE701206071002000F018F898F8000077E79DF81C0007F0C1F9F7E75D
:20075C00F91D0020EC1C00202C4000201F390020FF0000205A400020D801001000400340D6
:20077C002DE9F04F97B0DFF884828246D8F8040018B18047002800F0D9809D4F0120002119
:20079C00042300247E78F873BD7808AA30460AF089FA9DF82200800703D07879002800F09D
:2007BC00C68030460621F8224FF0F80909F098FF06EB460407EB840080F818909DF82000CA
:2007DC00702803D03046702108F08AFCCDF810A0069608AA2846002104234FF000090AF052
:2007FC0061FA9DF82000FE2803D02846FE2108F077FC28460621FE22FE2609F071FF07F1A2
:20081C001600BA7888F80090059500EB8401C9880192798205EB4501039100EB810101F84B
:20083C00026F7E78029106EB460100EB8101B1F806A002EB420100EB810030F8061F07912D
:20085C0000900EA808F0ACFA0DF124090FAD1FFA8AF0172860D398F80000002860D1AAF128
:20087C00070B30464A461FFA8BF7394605F04AF8BDF8324004F11000B8421BD89DF82E0017
:20089C00962817D19DF82F00C10742D1800740D5ABEB0400C1469DF82D20214633461FFADF
:2008BC0080F8404605F0AEFF08B3C846AAF1080B0DF124095C46A0B216282ED93628A4F1AE
:2008DC00160730462A4688BF2027E41BBBB2A1B20AF0E8F93804EED015FA87F010F8010C3C
:2008FC00962801D0013FF5E707EB040AAFE704F1070A079F41491FFA8AF313FA87F00A1A27
:20091C00304641460AF0CEF95744C8460DF124090797ABEB040A9AE7D34698F8000050B1BC
:20093C0034480E990068426833489047002420B217B0BDE8F08F079E019C1021C6F50052B3
:20095C00A6F1100083B2C1F20012204608F044FA98F8001008430E9988F800002548006857
:20097C00426825489047224D00980123B5F91220697B06802046A5F814B02E8208F06EFF1C
:20099C00B5F91420A97B2046022308F067FF049A002A08BF1022288A7C21C0F50050904265
:2009BC00B8BF7821059F384608F09AFB069E304604F08EFC88F8000038460621FC22FC2461
:2009DC0009F08EFE0298FE21AE70EF706F700470039805EB8000808BE880304608F080FB86
:2009FC0000206871E888C0F50054A0E7EC1C00202C400020D8010010004003400020001191
:200A1C002DE9F04F8DB0044600209A4616460F46CDE90B00CDE9090087488568804605F036
:200A3C00F7F91C2803D005F0F3F91B281BD1308840F60201884218BFB0F5C15F03D1F07BED
:200A5C00022810D93EE043F6070188420BD196F82400032807D33069784940F0806020F031
:200A7C00604088422ED100206FB366B3387825FA00F0C00726D0304600210AF026FB7048B0
:200A9C00C4E90176006880B109A800900CA90BAA0AAB304602F0E6FA0B980B214FF6FF7250
:200ABC00502309F0CFFBFF280CD00AF0DBF9654F06467878012802D840B1012070E0304648
:200ADC000AF0BEFA00200DB0BDE8F08F02F03EFA5D480DF10409016841F0020101605B48CC
:200AFC00C8F8000048460AF02DF9DFF864B15A494A469BF801009BF800500390554828304E
:200B1C0008F056FB554856494A4608F051FB48460AF0A8F8DFF84C81534A19214B46029595
:200B3C00404607F0E9FE514A08F11C001A214B4607F0E2FE4E484F490AF06FFA4E484F4923
:200B5C000AF06BFA4E48006810F4402F06D04D4A07F128000421002309F024FA9BF8020028
:200B7C0010B10D2004F06CF908F1400009F0CAFF08F1380009F0C6FF4349002007223876A5
:200B9C00B8843862386181F860200521C7E902103E49F96138700420002109F0F3FB787844
:200BBC002C4941F820400130787030460AF048FABAF1000F06D10DF1040A3549202250464D
:200BDC000AF0AAFADAE90012BAF81000DAE90635002AB2FA82F608BF40F6C4126261216061
:200BFC0060832563760926764FF4FA76C4E9036201226276274AC4E90722C4E90923DAF8A1
:200C1C000C0000B12062DAF8140000B16062DAF8080000B1E06104F13800C82109F0E0FF66
:200C3C0004F15000002109F04DFC1B4904F1B8000AF0F3F9204646E7CC2108400F0000051D
:200C5C000C1E0020201A002000200940110000E058DC0000C01B002089A70000203F00209C
:200C7C005D490000241C0020296C0000E1620000DC3E0020E59F0000983E002035A70000EA
:200C9C00B44F005031770000703C0020D13500005CDB0000DB47000087B000008EB09748BE
:200CBC00DFF86092D0F800B0954800214FF080424FF0FF33006803F0CFF9D9F800000AF079
:200CDC0061F90028F0D1EFF311808BF311880C90D9F8000009F088FE04460C9880F3118845
:200CFC00002CEAD02088032812D0022840F0EE806668307805281ED0022826D0012859D171
:200D1C0070688078012855D17F480121017051E0D4F8048098F80000032840F0CB80D8F8B7
:200D3C0004A09AF800509AF80100032D4ED108F05BFF01204FE07068008808F09DF9002877
:200D5C0000F0C48008F050FF34E07768388808F093F9054609F010F8D0B9D7F812E0B7F880
:200D7C000730D7F80220397897F8098097F80CC007F10D00CDE9020E2846CDE9008C08F098
:200D9C00EFF8B8B1284607F079FF5F4900206854B7F80730BA79D7F8021038787D7A97F856
:200DBC000CC0D7F812E00D37CDE9005CCDE9027E04F0F6F8EFF311808BF311880D9070681D
:200DDC0009F0FEFC0D9880F311887FE04E49415C002944D000200B9009F0DEFE06460AF0AD
:200DFC0092F907469AF8010008F0C6FF00285BD19AF801004449013801444978012953D1AE
:200E1C004149097800294FD0032D4DD03F49C0EB001001EBC000B0F87410057C0A91416E30
:200E3C000991816E0891C16D0491416D069190F84F1090F850000791059006F01FFB9AF8DE
:200E5C0002A00246082D1BD0042D08990B9D20D10698089208F020FEDDE9071218E009F0E3
:200E7C0011F84FF6FF71884224D000210B91002106F078F99AF80100234901224254ABE74B
:200E9C0004980899154608F007FE2A4605990B9D00B97F2109984BB22946CDF800A0801A86
:200EBC0082080A9808F032FD38460AF02EF930460AF0E1F8EFF311808BF311880D90D8F8E4
:200EDC00040009F07DFC0D9880F31188EFF311808BF311880D90606809F072FC0D9880F361
:200EFC001188EFF311808BF311880C90204609F067FC0C9880F31188DFE600BFF4DC000051
:200F1C003842002020420020F01D0020F02400202DE9F04F93B08146C08990468B460730B2
:200F3C0086B2304606F056FA0746FF280AD13046FFF716FCB04205DA86480078002808BFCE
:200F5C00052004E1DFF80CA29AF80000F8B9B8F1000F04D0B8F1020F19D1FF2F17D199F8CC
:200F7C000800002203238DF83C00D9F8040000920E907948C188C0780DAA01F0ABFD9DF818
:200F9C00440089F81000BDF84000A9F80C00B9F80C1039B3B9F80E0020B3A1EB00080025BA
:200FBC0005AEACB280B208EB05013246001B89B22028A8BF202087B299F810003B4609F0C8
:200FDC0071FE1BFA85F130463A4609F008F948B93D19B9F80E00A9B28142E2D30020A9F861
:200FFC000C00B2E05C4C00210423E678B4F8068012AA304609F056FE9DF848007E2805D1DF
:20101C0030467C2108F06CF89DF848007C2865D1B9F80E7007F1070A18FA8AF0B0F5005FC6
:20103C005ED8B9F80410C7F385120490B9F80600BB0007EB08058DF8183042EA8112890826
:20105C008DF81500C0F301208DF8161099F808101FFA8AF98DF81720B9F10D0F40EA8100E9
:20107C008DF8140042D23B48029559463A46039300F11C0528460AF04FF8059805EB070B78
:20109C000022E8519DF818008BF80400781D81B2284609F005FF05992A464B46E9519621E2
:2010BC008DF81A10039909F04EFDDDF81700CBF80300304607F090FE2649049A087006EB62
:2010DC00460104EB81018A83E1885144E180D0B3029881B2304606F0F3FC34E0012002E00E
:2010FC00DFF870A005208AF800002EE058463946002209F0D5FE0DF114090522494609F063
:20111C0051FB96215A463B468DF81A109DF8181009F019FD304607F05FFE0E4FA9B24A4602
:20113C0007233870304607F057FE397808433870000608D106EB4600049904EB8000818335
:20115C00E0885044E080DFF80CA09AF8000013B0BDE8F08FEC1C00202C4000202DE9FC470E
:20117C00D0E900588246D8F80000D0F8409019F4F06FC0F8449035D05FEA495117D5D5E988
:20119C001401411A504608F0D7FBD8F800008169C90605D401688DF807109DF80710F6E773
:2011BC00296801312960A97B09B90121A973696C40684FF0004600F00F0404EA0100B0FA05
:2011DC0080F126FA01F1014005D02F6C1FB12A68AB6C5046B847B4FA84F026FA00F020401F
:2011FC004042A863D5F85801D8F83C1009F0400740680068D0F804251140394347D0DAE91C
:20121C000064504605F09CFBD7B1F07C90B90BE0316F69B10068B16EB26F8854306FB16F07
:20123C0001310138B167306720688169C906EFD5F07C28B1D6E91401411A504608F07CFBFA
:20125C0096F86400E0B13079022819D017B1B179012901D0316F99B90024B16E012834674D
:20127C0086F86440B46607D1B36CB26FD6F8CC6050460094B04703E006F17C0009F035FF60
:20129C00504602F019FDD5F858014068006800F204500068D8F83810084228D0D5F8F80091
:2012BC0028B3DAE90076504604F032FC504603F0A5FB7879012812D1D7F8F40078B997F89D
:2012DC00E80060B1002087F8E800BB6CD7F8EC10D7F8FC20D7F8504100905046A047D7F859
:2012FC00F80020B93068816B41F4006181635FEA095023D5D8F8000081690907FCD4016B63
:20131C0021F480710163297A91B10020287295F84400800606D52C6C24B1AB6C504620211B
:20133C000022A0475046012108F0F6FBD8F80000816B21F400618163687908B1BDE8FC870F
:20135C0005F58070BDE8FC4709F0CFBEBFB504468078022840F05F80208822282AD8DFE86F
:20137C0010F05B003D002300230066003D003D003D003D006A00700074007A00800086004B
:20139C008C0090003D003D003D003D003D003D003D003D003D003D003D003D003D003D00BF
:2013BC003D00E5003D009400A06804B0BDE8B04007F038BB27286ED0282800F082803228BA
:2013DC0000F08A80362809D10520012101238DF80C0003AA812005F021FFBFBD062001219C
:2013FC0001238DF8040001AA812005F017FFA06888B14F480068EFF3118180F31188039179
:20141C0009F0DEFB0290A06809F0DAF909F0D7FD039880F31188BFBD464803210C2300F1B6
:20143C000802002004B0BDE8B04005F0F7BEBDE8BF4009F037B8A06804B0BDE8B04008F09E
:20145C00E1BFBDE8BF4008F0FDBFA06804B0BDE8B04007F005BBA06804B0BDE8B04008F027
:20147C00E1BFA06804B0BDE8B04008F0ABBFA06804B0BDE8B04009F005B8BDE8BF4008F05A
:20149C00F1BFBDE8BF4008F0ADBFA06804B0BDE8B04008F09DB8A06808F082F8244800688C
:2014BC00EFF3118180F31188039109F089FB0290A06809F085F909F082FD039880F311884F
:2014DC00BFBDA568A97801290CD1E97828882A1D06F04AFDA97806E0A06804B0BDE8B04052
:2014FC0006F01EBD06208DF80E108DF80F00032104232888ADF80C0003AA282005F08EFE80
:20151C000B480068EFF3118180F31188029109F057FB0190A06809F053F90020A0600198FF
:20153C0007F002F8029880F31188BFBD09F0FAFBF4DC00004C1D00202DE9FE4F1D46144615
:20155C000F46814609F08EFCDFF8C0A183464FF6FD78DAE90010494518BF084660B1B83096
:20157C0009F0ABFD40B19AF82400CAF8209040F004008AF824009FE008F0F4FE002868D0F2
:20159C0006466348CDF808B0DDE90CB809F055FD604908F0200EB1F8540001306FF31F3038
:2015BC00A1F85400B5605C480025C6E903792268D4F80C8086F83250C6E908550BEA000C2A
:2015DC00207C72632279C6E906CEC6F8408086F8440086F83820B1F8541086F83350D4E97F
:2015FC0005533186A168C6E91253F163A18BA6F8501028B9B8F1000F1CBF012086F84400CE
:20161C004AB9387B00F00F00022804D1012086F83800B8687063DDF808B00822FF2353FA0A
:20163C0082F23C46D0B2851A18BF01257F680FB1002DF4D1208800F47C40B0F5305F0BD179
:20165C0096F833000022082340F0100086F8330004E008F101082FE0002202234CEA0300FA
:20167C004EEA02012B4DC6E90601DAF82000484507D19AF82400C1071CBF00F0FE008AF8C5
:20169C0024002648046854B1A96CEA6C05F1400005F1380300903046A047033013D1FD2038
:2016BC009AF82410CAF820904FFA80F841F004018AF8241009F0FEFA584609F0C1FC0FFADB
:2016DC0088F0BDE8FE8FB6F83080B5F85410414501D009F0EFFAC0B2012801D8FE20DFE744
:2016FC00002089F8FC0096F8330040F0800086F83300A86BB04205D0F068007B00F00F0063
:20171C000228D9D105F050FAD6E700BFC01B0020983E0020241C0020FFEFFF9F1C1E0020E7
:20173C002DE9FE4FD0F80080994616460F46824613B10020C9F8000009F094FB044698F883
:20175C00070038B198F8640048B109F085FC6FF00805BBE009F080FC6FF00E05B6E0002E64
:20177C0057D0504605F0ECF800200121C8E91A76C8F87060C8F87800C8F8380088F80C00E8
:20179C0088F80A00504688F8641007F095FB504602F092FA09F060FC08F14C060DF1080BCD
:2017BC0009F060FB05463046594608F0F6FCD8F870100446D8F878008C4288BF0C4602998B
:2017DC003844224609F0A8FC3046214607F0D6FFD8F87000D8F87810001BC8F870000819BF
:2017FC00C8F87800284609F02BFC012C03DBD8F870000028D4D109F035FB98F804100229F7
:20181C000CD10021C8F8681088F86410C8F870101BE009F021FC6FF0090557E0D8F870202D
:20183C009AB90022D8F86840012988F86420C8F868200AD1012588F8105009F001FC98F8C2
:20185C000F00002845D009F00DFB09F0F9FB98F8040008B100252AE0D8F870000028F9D085
:20187C000C9908F17C0009F0BEFB10B1012088F80C0009F0F7FA0446504605F061F80020DA
:20189C00C8F86800C8F8700088F86400504602F013FA98F80A6098F80C5009F0DDFB002D77
:2018BC0018BF6FF00C05002E18BF6FF00D0509F0D9FAB9F1000F07D098F8041001291CBF4A
:2018DC00D8F87810C9F8001009F0BAFB2846BDE8FE8F002698F810000028B4D009F0C2FA4E
:2018FC00A8F80F5009F0ACFBD8F84830D8F87820D8F8CC70504621460096B84788F80F60F0
:20191C00E8E770472DE9FF41DFF8BC81002003900290D8F83840B4B3D8F84C0010B9D8F812
:20193C00480070B3D8F8480060B12069D8F848100969814206D194F83300C00602D5D8F80E
:20195C004C0090B1002702A887F0010103AA03F00DFF0546FFB9F5B10299002900F09D806E
:20197C005A4809F035F8002714E0D8F84800C06840880028F9D0D8F84800C068408801283E
:20199C00F3D00127DFE752480221283009F0AFFB0027002500242CB34E48466816B30298CC
:2019BC00B0FA80F04009284001281BD1D8F84800D8F84C10039A87F00103CDE9003208F1EE
:2019DC00380208F14003B047012868D0022809D1D8F84800012201230069D8F84810B1F97F
:2019FC00301065E02046002C18BF01203840012851D1394821694068814203D034484FF4F1
:201A1C00806145E00298002818BF01202840012806D1D8F8480018B9D8F84C0000284DD038
:201A3C00082008F095FE94F833004C25C00658BF482508F1380008F09FFB48F80500274BE3
:201A5C00D4E90601C2439A60DA681043D860C843186058680843214658600820E56808F0C0
:201A7C0091FC284608F0DEFB288843F60601411A022906D3B0F5C15F03D040F60201884294
:201A9C0003D10120294608F07DFC11484FF08041283009F02CFBBDE8FF8100277BE703983B
:201ABC00002818BF0446B4F930102069012200230092002200F07CFFBDE8FF81082007F0A2
:201ADC0043FBBDE8FF8100BF241C0020DC3E0020C01B00201C1E0020201A00200810044023
:201AFC00B0B560480021604C016094F83A01032812D002282ED0012840F0AF8094F840013E
:201B1C0004F0A6FB002084F840015948817B0220002908BF06209EE054480168B1F5C06019
:201B3C00C4F82C01B8BFC1F5C060D4F81011002900D5494288422ADDD4F8140108F0EAF950
:201B5C00D4F8180108F0F8F9D4F8280108F018FA01201DE04548056809F0C4F8C4F81401FE
:201B7C0009F0C8F8C4F8180109F0CCF8B5F5C061C4F82801C4F8101109D094F830215AB1B0
:201B9C00D4F81401D4F82021D4F82C110AE0002084F8300106205EE0C4F82401D4E9450232
:201BBC00C4F82C110223C4F81C01002948BF6FF0010301EB41011944042391FBF3F1114408
:201BDC000029C4F820110FDD1F2931D3D4F824212AB33E28A8BF3E200130292928BF2921CE
:201BFC00C4F81C010B3909E0D4F82421032A09D111F1140FD8BF6FF013011531C4F8201149
:201C1C00002113E00128D8BF0120013811F10A0FD8BF6FF00901C4F81C010B3103E033290B
:201C3C0028BF33211539C4F820110321C4F8241108F070F9012008F091F9D4F8200108F014
:201C5C007BF9D4F8240108F09BF9A5F2FF510420032938BF0620C4F83C01BDE8B04001F0A4
:201C7C009FBB00BF3C500C403018002008400C40ECDB0000FEB5044657480078A04213D9B2
:201C9C0008780D46012801D1686868B16878012801D1A86840B1514F57F8346009F0E2F83F
:201CBC00F17921B109F0CCF900242046FEBD07EBC40401216768F17109F0C2F9002005F1F2
:201CDC00040C7074F081B06030602988B180A98BC6E93D00C6E90E0086F86400B186297D65
:201CFC002B69B1719CE80610C6F85021BCF1000FC6E910C34FF0FF32C6F8CC10A969C6E940
:201D1C003B203163A97F86F83610296AC6E91A00C6E91C00B16486F8E800C6F8580102D140
:201D3C002F49C6E9101097F8400003F089F8D7E9031206F14C0008F0FDFFD7E9051206F123
:201D5C00D00008F0F7FF274938680968C9688847796C97F8240008F07DFCB96C97F820004B
:201D7C0008F078FCF869012809D1F96C97F8280008F070FC396D97F82C0008F06BFC04F043
:201D9C0077FFC6F85801204601F01AFD164A06F5AE700421234608F005F96D46284608F016
:201DBC0061FF387A7968114A2B460094019006F1140006F0A1FD06F17C00002108F082FB7B
:201DDC0006F58070002108F07DFB3868D7E90C121060486069E700BFFFDC000090DC00007F
:201DFC00B3540000D00100108DAB0000791100002DE9F84FD0E90054994616468A468346DF
:201E1C0013B10020C9F8000076B109F02BF80746E87968B195F8E80088B1384609F010F9C9
:201E3C006FF00800BDE8F88F6FF00900BDE8F88F384609F005F96FF00E00BDE8F88F002031
:201E5C00012105F58078C5E93BA6C5F8F460C5F8FC0085F8E810E8636873E872404600215D
:201E7C0009F0C1F8204609F063F8384609F0E8F808F032FE08B96879C0B395F84400C006AF
:201E9C0006D52C6C24B1AB6C584610210022A04708F0E8FF0446584602F0B0FD204609F02A
:201EBC00CFF8687960B90A99404609F09CF808B101206873584603F02BFE002085F8E8009B
:201EDC00B9F1000F1CBFD5F8FC00C9F80000E87A28B10020E8726FF00D00BDE8F88F687B98
:201EFC00002818BF6FF00C00BDE8F88FDBE9005495F84400C00614D52F6CAB6C5846102117
:201F1C000022B8470DE0D5F8FC0031460AEB0002204607F067F9D5F8FC10361A0144C5F878
:201F3C00FC10002EEFD1204608F014FF0028FAD0204608F0F1FF95F84400800605D52C6C11
:201F5C00AB6C584620210022A0470020B9F1000F85F8E800C8D0D5F8FC00C9F800000020E6
:201F7C00BDE8F88F564F554E4FF0000807F10809F0684FF0FF3101F0FDFF0028F8D0F08865
:201F9C00C00502D5387806F0F3FC08F08DFB3189F3883278A6F8088086F800801943002AEB
:201FBC0018BF41F08001F18008F074FFF088010644BF20F08000F080410608D5786808F022
:201FDC0071F9F088C7F8048020F04000F080C1061DD508F059FFB0B9B86808F0D3FF96F915
:201FFC00011018B9B1F1FF3F4C4609DCF088800609D441B93C4654F80C0F08F0C3FF10B94B
:20201C00206803F027FBF08820F01000F080800628D596F90100002824DC08F045FB054641
:20203C00386908F0A5FC0446284608F033FF54B1204607F0FDFB18B1204608F033F902E0D9
:20205C00707801307070F08820F02000F080386908F098FF30B9F08840F02000F080F068AA
:20207C0004F0C0FFF08800077FF582AF707800287FF47EAF08F018FB0546786908F078FC1A
:20209C000446284608F006FF34B1204607F0D0FB10B1204608F006F9F08820F00800F08044
:2020BC00786908F06FFF00287FF462AFF08840F00800F080F06804F095FF59E7AC1D0020E8
:2020DC00341D00202DE9F04F87B0064652480D46D0F800A0EFF311808AF311880690032004
:2020FC0009F00DF88146069880F31188B9F1000F00F08E80681EDFF824C189F8015089F809
:20211C000060C0EB00110CEBC1010B4613F8072FD3F85D001F2AC3F86100D87C89F80200D8
:20213C0003D3032089F800000EE0032E0CD03C4E307828B1887901321A700130887103E038
:20215C00002201201A7030700B4653F8586F26B1032A22BF002018604E65DFF8C4B09BF885
:20217C000100B0B39BF80200A84236D14FF0000800208BF80280DBF808508DB380BB6B8953
:20219C002A7A696828782C7B6F7BD5E905EC05F10E06CDE90047CDE9026ECDF810C000F01C
:2021BC00EDF88BF80200DBF80800C069CBF8080008B9CBF80C80EFF311808AF3118806909B
:2021DC00284608F0FDFA069880F311889BF80200D1E79CF8000038B90AE08BF8030005E0B5
:2021FC0030B900208BF8010000F04CFB03F00EFC0320494606F060FB50B9EFF311808AF306
:20221C0011880690484608F0DBFA069880F3118807B0BDE8F08F00BFF4DC0000F0240020D0
:20223C009C1D00202DE9F047012816D1DFF830A1DAF83401012813D10220CAF8340107F080
:20225C0039FB0120012407F0DBF960B1CAF8344108F078F84FF0FF347FE06FF001047CE0DC
:20227C006FF0040479E09AF85A419AF859119AF85801002C18BF0124002918BF02340028E8
:20229C0018BF0434012008F017FE013818BF01209AF83811B1FA81F1490910EA010902D193
:2022BC00002002F0F7F8DAF808002E4D10F0010807D12D4F286A8168384688470428F9D092
:2022DC000646404608F08AFEB8F1000F08D1012E04D1286A012142682348904708F0FAFC6D
:2022FC0028684169204688479AF8540118B14FF4806008F0E7FD9AF8530118B14FF48160D1
:20231C0008F0E0FD19480121016003200021CAF8340117480160204606F018F80128FAD18D
:20233C00144E3068042007F06BF9044612480125B9F1000F0560306802D1012002F0AAF800
:20235C0008F09CFD082007F05BF90443CAF8345118BF4FF0FF3407F0F5FF2046BDE8F08719
:20237C0030180020B801001000400340282008600C2008402C2009400C4009402DE9FE4FDC
:20239C001F4693460D46824605F078F84C4C06462078082800F28D80DDF838804FF00109E2
:2023BC0001955FFA89F5082D00F28380284607F0E3FC032802D009F10109F2E7A9F10102AF
:2023DC004CF2503041460C2F0096D2B23044C2EB021204EBC208C8E91800019888F810B0B7
:2023FC00A8F874A0A8F81270C8F80C0061D3B7F5C85F5ED80D9808F81A0F88F802005A2018
:20241C0028F8020C0C9808F8040C0F98C8F85600284605F05DF84FF4A0701099B0FBF7F4B7
:20243C00A61C06FB07F028F8060C009808F071FE40F6C4117943884286BFB0FBF1F03044BF
:20245C00601C81B2284604F03DFD88F800001E481C4E012486F8029074700068EFF31181D0
:20247C0080F311880C20029108F049FE029981F31188F8B1124CC5EB051180F8009004EBCA
:20249C00C10151F8141C416005F0B6FD207860B1F0780099C0EB001001F57A7104EBC000A7
:2024BC0050F8140C07F0F8FA38B1284603F0AEFA18B101242046BDE8FE8F0024FAE700BF73
:2024DC00F02400209C1D0020F4DC00002DE9F047DFF83091D9F840A0BAF1000F00F08680BD
:2024FC000AF10C020820FF2151FA80F0C3B21B1A18BF012312686AB163B11388A3F603032C
:20251C00012B01D90432EFE7DAF8100092E8FA003830FAC0DAF808200025DAE90A10CAE966
:20253C000A55B2B110F0E2440CD021F00F0220F0E2434FF0000852EA030005D008F047FCCE
:20255C00B04701E08846044608F041FC42462346B04708F087FC0446B9F8560001306FF3F3
:20257C001F30A9F856004FF6FD70AAF8300009F140008AF8335007F0FFFD204608F060FD88
:20259C00B9F85600B9F8541088422FD11E48406890F8FC10072000291C4908BF0520D1E93C
:2025BC00005404F08DF855B195F8FC00002100284FF0000008BF286885F8FC1000E000203B
:2025DC0044B194F8FC200021002502B9256884F8FC1000E00025A84288BF0546681C05D052
:2025FC0035B90020BDE8F04708F096B8BDE8F08708F05FFDB5FBF0F10548BDE8F04708F06D
:20261C00E7B900BF241C0020201A0020C01B0020983E00202DE9FE4F0D46044607F0ACFBF6
:20263C0018B9284607F0A8FB10B10020BDE8FE8FDFF820A1691EC1EB0116611E0AF1040032
:20265C00C1EB011100EBC60300EBC1081F46C14637F80E0F39F80E2F824209D90AEBC601B0
:20267C00097A4843904238BF25462846BDE8FE8F904208D90AEBC101097A5143814238BF21
:20269C002C4620465CE00AEBC10B02935B4613F8760F88B15BF8781F01935BF8140C08F061
:2026BC0038FDB9F80010019AB0EB410F82BF0020CBF80000107005E00AEBC601084610F8E7
:2026DC00762FDAB10AEBC606B14619F8760F88B156F8781F56F8140C08F01BFD3988029A67
:2026FC00B0EB410F03D90020306089F80000414690461CE04146DDF8088018E09BF80720D7
:20271C00029E12B112F0030204D0C97969B111F003010AD10121D8F8602019700170306E19
:20273C003146C8F87420706701E04146B04698F804200B792046934202D89A42284601D90C
:20275C00BDE8FE8FD8F86000096E814288BF2C4697E700BFF02400202DE9F041054688007D
:20277C0058BFBDE8F0810020002404F0B1FD3E493E483F4FCC61086040F60A008846B887AD
:20279C00FC8797F8480000F0F00087F848003C6497F8490000F0F000013087F8490028465D
:2027BC0002F052FCAC68012021460E46496849B10A88A2F60302072AF7D800FA02F212F003
:2027DC00830FF2D0707B00F0F000707307F13C0070602848806B28B1C0680088A0F603005A
:2027FC0002281AD3284630F8381FB1B10021E9636987386495F8440095F8451000F0F000CB
:20281C0085F8440001F0F000013085F8450097F8490000F0F00087F8490008F09FF9164899
:20283C00F86197F8250030B107F0F2F90028FBD005F052FB0DE01148006801680120884770
:20285C00012806D0707B00F0F000013070730C48F86100202146C8F81C00C8F8004001204D
:20287C00BDE8F04107F08EBD0010044001010E04201A0020241C00203D000000E0010010D4
:20289C00457400002DE9F84F04F0F8FD04F0F6FDDFF81481DFF814910446D8F80400416887
:2028BC00204607F0F9F8A8B1D8F80450287801F08BF895F90000002105F0E6F92878C0EB4F
:2028DC00001009EBC00050F8140C6860284605F093FBE2E7D8F804A099F800009AF800B0E7
:2028FC00012818D1CBEB0B1009F1040404EBC00010F8731C584604F0E5FAD8F804100A78BA
:20291C0088F80320C2EB021204EBC20291F800B002F8620C44E000255446CDF800B0BAF1E0
:20293C00000F16D0A468A4B1042D12D826789AF800703846314603F02FFF50B1384631465E
:20295C00FFF768FE83462078834508BFA2460135E5E7009D5D4506D05FFA8BF1284603F0DA
:20297C001BFF01280ED1CBEB0B1009EBC0045FFA8BF014F86F1C04F0A5FA04F85E0C88F8AC
:20299C0003B00DE0C5EB051009EBC004284614F86F1C04F097FAAB4604F85E0C88F803504A
:2029BC005FFA8BF0BDE8F88F9C1D0020F02400202DE9F84F4FF00056002A984617460C4645
:2029DC00824618BF4FF080464D1C08F04BFA814635B150462146002205F0FCFC04460FE09F
:2029FC003748816C11B10969514506D0C16C11B10969514503D0846B02E0846C00E0C46C14
:202A1C0034B194F93300B0F1FF3F03DD042451E003244FE0DFF8A8B00A9DDBF848008442D0
:202A3C0018D0DBF84C00844214D05046214642462B4602F0DFFE0028E8D02248017E012911
:202A5C0037D0007E042834D01F482049283008F04EFB2EE0DBF848000022334607F0ECF89D
:202A7C00DBF84C000022334607F0E6F81848002F18BF00F5803007F0D5FB85B1DBF8480088
:202A9C0008F0A7FADBF84C0008F0A3FA20690E49086291F8240040F0010081F82400B8F15F
:202ABC00000F06D0DBF83810504601222B4602F0A1FE8324484608F0C3FA2046BDE8F88FC3
:202ADC00241C0020201A0020C01B002002000040010001042DE9F04F89B00546129803F067
:202AFC00F004DFF80CA103F00F0B002818BF01200392103CB4FA84F464092040D488029053
:202B1C00107A92886FF39F2400F03F0024036FF39F2244EA00601044019004AE88B21728B9
:202B3C0057D3A1F10709EFB232461FFA89F43846214602F0E7FE9DF81B8008F003000228ED
:202B5C002DD1BBF1030F4FD80398007ADFE80BF0140205109DF8181007E09DF81810884249
:202B7C001DD10398BDF81610C088884204D016E004980199814212D1029878B3129800218D
:202B9C0083688289304604F0B5FE40B9129BD8889A68196810449A8807F021FBF0B15FEA0A
:202BBC00487003D401208AF805000AE0BDF81E00844202D9A9EB0001B0E73846214604F05F
:202BDC007FFF0020FDF7CCFDBAF806109AF80350A4E70399002088810A2006E0039D96E853
:202BFC001F001FC5002000E0042009B0BDE8F08F2C4000202DE9F04387B0DFF8FC8081468F
:202C1C002025EFF3118085F31188D8F830501DB180F3118800256AE0C8F83090374F80F3BD
:202C3C0011880020C9F80C104FF48031C9F81C20C9E91200C9E90801002B18BF1F46D7E94B
:202C5C000116C9F81810397B012905D1C9E91060C9F8146030460DE0294A002031460023BD
:202C7C00002507F0C1FFC9E910012649C9F814008E423CD80021DFF890E0C9E9160197F8B1
:202C9C0000C0C9F85410BCF1020F08BF0146C9F8501001AB9EE8F5001946BCF1000FF5C14E
:202CBC0008F11C001A4ACDF808900090174808BF0246142109F1280007F004FA054620204D
:202CDC00EFF3118180F3118881F3118899F8100010B9484605F0B4F935B108F1280049461B
:202CFC0007F0C2FD4D4602E00025C8F83050284607B0BDE8F08300BFF01A00209CDB00008B
:202D1C0040420F003F420F00D4DB0000B98A000081AD00001EF0040F14BFEFF30981694647
:202D3C008869A1F1480214BF82F30988954621ED100BF1EE102A41F8082DEFF3118102B41C
:202D5C0000B5DFF8D8E0F047374A1268116801EA000010605DF804EB1EF0080F09D101BC0D
:202D7C0080F311885DF8080BE1EE100ABDEC100B704704BC1EF0040F14BFEFF30981694690
:202D9C00A1F1200114BF81F309888D464A604FF08070C86125488861234B1B681868086088
:202DBC0040F201101860704702B401B4EFF3148100291CBF002282F3148802B402B4DFF829
:202DDC0060E0F04701BC01BC00281CBF022181F3148801BCDFF84CE0F0470F484FF0805152
:202DFC00016001BC80F3118800BF00BFFFF7FEBF1EF0040F14BFEFF30981694601F120013A
:202E1C0051F8080BE1EE100AB1EC100B14BF81F309888D46704700BF04ED00E049670000F7
:202E3C00A5B00000ABB00000F8DC0000C42D00002DE9FE4FD0E90085994614460F46834609
:202E5C0013B10020C9F8000074B108F00BF8064698F8070058B198F8E80070B1304608F09E
:202E7C00EFF86FF008056DE06FF009056AE0304608F0E6F86FF00E0564E000200121C8E9EA
:202E9C003B74C8F8F440C8F8FC0088F8E810C8F83C0088F80D0088F80B002846019508F02F
:202EBC0047F8304608F0CCF808F1D0060DF1080A07F0D8FF04463046514606F076FC0546CE
:202EDC00D8F8F400D8F8FC10854288BF0546029839442A4608F020F93046294605F0D0FF9C
:202EFC00D8F8F400D8F8FC10401BC8F8F4004819C8F8FC00204608F0A3F8012D03DBD8F815
:202F1C00F4000028D4D107F0ADFF0446D8F8FC0050B1019808F00CF8584601F06FFDD8F8BA
:202F3C00FC0008B1002502E06FF00F050020B9F1000F18BFC9F80000002088F8E8002046E7
:202F5C0008F07EF82846BDE8FE8F70472DE9FF413B4E96F8420100286AD1012086F842019B
:202F7C0007F0B6FF374F86F87001374D7868C6F86C01387B86F84101A86810F4402F13D1AB
:202F9C00386988B128686421C0F3066000FB01F408F08FF8B4FBF0F22C4906F194000023EA
:202FBC0006F06EFA07F08EFE01AC204608F002F82749A846002506F10C00002207F0F9FE79
:202FDC00204607F0F7FF234906F15000082207F0F0FE214A06F1D8003221002305F08CFC93
:202FFC001E4C1F4A06F1F4002C2100232560454605F082FCD8F80800797BC0F3815021B1E2
:20301C00032804BF012186F83911032803D040F00200022810D1206840F0400020600220E7
:20303C0006F08EFA6868400702D4002006F088FA002004B0BDE8F08105F0EAFEF2E700BF12
:20305C0030180020ECDB0000AC4F005031AE00008F760000D5860000F16C00009022084044
:20307C00FD1A00002DE9F8431D46434BDDF8208043F606061C68038814F0007411D0B342C4
:20309C0027D0B3F5C15F33D040F60206B3423ED100F112030B604169116081692960C169E7
:2030BC002EE0B3420AD0B3F5C15F03D040F60206B34203D100F11203143002E000F11A033B
:2030DC001C300B600068106000202860C8F800004BE000F11A034FF000090B60C169116056
:2030FC00016A2960416AC8F8001000F118011CE000F112030B6041691160416A2960816A94
:20311C00C8F8001000F1100190F80F900DE000F11A030B60C1691160816A2960C16AC8F83A
:20313C00001000F1180190F82490286868B10E8807F046FE042808D8074606F007014846BE
:20315C0003F0E0FF296841F82700D8F8000060B107F036FE042808D805464846FF2103F08C
:20317C00D1FFD8F8001041F82500002C18BF01242046BDE8F88300BF941200502DE9FE4F5F
:20319C001F4616460C4681469D1804F077F9019015F9050C002807D415F906BC1BF17E0F04
:2031BC00B8BF4FF07F0B01E04FF07F0B364855F8048CD0F800A0EFF311808AF3118802902B
:2031DC00082007F09CFF0546029880F31188002D4BD0CDF80090A4F10109AC702B4C6F608A
:2031FC00EE7061782078012908BF002817D12849C9EB091001EBC0060198374657F8541F1B
:20321C0007F087FF47F23151884207D3012086F84FB068703868C7F80080B065207801288B
:20323C0011D11B4AC9EB09110020207002EBC101C1E9158048790A7F81F84FB00130CA768C
:20325C004871012009E01249C9EB091001EBC00080F850B0C0F85C800020009968700120FD
:20327C002970294605F028FB08B1BDE8FE8FEFF311808AF311880290284607F0A1FA029872
:20329C0080F31188BDE8FE8FF4DC00009C1D0020F02400202DE9F84F154607F005FA804683
:2032BC0015B33A4C3A49268809887019884288BF8D1B5EB937490878FE2807D136486E1E81
:2032DC0001313246006807F027FF08E046B1324830492A460068304407F01EFF2E44268059
:2032FC002C48294607F07CFCDFF8ACA0DFF8A090DFF898B0DAF800502878697840EA012029
:20331C00B9F80010441D8C4230D8BBF800108C422FD8071D2846BEB2314607F06FFCE95DE0
:20333C00884223D1DBF804201AB3304600219047A1B2BBF800200B468A4288BF1346DAF8CC
:20335C000000914205D2445CFE2C01D00131F8E70B46DC439BB20144D31A18BF13199AB2BD
:20337C000131ABF8003007F0D7FEC3E70020ABF800000A48074980220023006806F01EFF11
:20339C004046BDE8F84F07F085BD00BF041E0020E61D0020F83A00202442002014420020F4
:2033BC002DE9F84F3C4C3D4E3D4D42F62A294FF0010A4FF0030B00274FF00508D4F83C0159
:2033DC00062833D8DFE800F00433183B203D4B000F20F060C6F8109005F006FB45F804ACEF
:2033FC0055F8040C8007FBD5C6F81CA094F8390190B10120EF6210E02F60C4F83CB1286852
:20341C008007FCD40320DBE72F60C4F83C8128688007FCD40520D3E70320C6F800B0C4F839
:20343C003C012F6029688907FCD4C9E7FEE70126022084F83A6105F05FF92E6009E00220D8
:20345C0000E0032084F83A01002005F055F90120286004F15000BDE8F84F07F032BE002052
:20347C0045F8040C286055F8040C8007FBD428688007FCD40B480025012105600A4801600F
:20349C000D2001F029FC022005F044FEC4F83C5184F83B51BDE8F88F3018002000400C4003
:2034BC0058600C403C500C4004800C402DE9FE4F05460F465818AE687168884202D96FF0DE
:2034DC00030564E0DFF8E8800C9C4FF0FF3199469246D8F8000007F086FDE00711D1A007BD
:2034FC001ED5306851464A463844CAB111F8013B10F8014B013A1C40A342F6D06FF00605C2
:20351C0041E0D8E90101CB4301EA090213EA090F18BF02442846394002F03AFB054690BBD1
:20353C00306802970196074405F046F9CB4655460090BBF1000F16D05E46BBF1080F28BFFD
:20355C00082607F08FFC804628463946324607F019F80446404607F073FD2CB9374435445C
:20357C00ABEB060BE5E70024009806F099FDDFF84080DDE901210C9814B14FF0FF3502E037
:20359C00400707D40025D8F8000007F0AEFD2846BDE8FE8F10680844B9F1000FF2D010F86F
:2035BC00011B1AF8012BA9F101098A42F4D0E4E7D81D0020B0B50C46880722D4600758BFC7
:2035DC00B0BD354D0120A870042005F0B9FF33480068006B8047E8602D48806BF0B16968A7
:2035FC00046961B1A1420AD094F82800400704D5636A2046042100229847012060766C6083
:20361C000DE0FEF763FF2248006CE0B3214844F002012830BDE8B04007F069BD6C6860689B
:20363C001F4900780860022005F08AFF102001F007FC012028761B48807810B90D2001F061
:20365C00FFFB6868416818488A680AB9C96821B100218160154940F8141C154907220A600A
:20367C00016800210160426841601249124AE9610168114301601A2007F025FD1920BDE8A8
:20369C00B04007F020BDBDE8B04003F08DBA00BF241C0020C01B0020201A00208C0100106A
:2036BC00D021084058DC000014100440510007060000046075270000024000402DE9F047EC
:2036DC00A4B007F0CFFB34490A78012A04D124B0BDE8F04707F0B4BC4FF0010981F8009051
:2036FC0007F0AEFCFFF732FC082001F0A9FB21AC204607F0B7FA4FF0FF30294A10212346D6
:20371C002290264805F0F8F82648284D00260DF1040A0478244890F800804746A74212D823
:20373C00286850F8271021F0FF004AF82700880707D4F8B201F0010107F08CFA09FA07F067
:20375C0006430137EAE71A4806601A48C16801F44001B1F5800F09D10068000E18BF0120F5
:20377C005AF8201041F007014AF820101248A4EB080204230AEB880103EB820240EA880044
:20379C0007F0CAFC0D482022016862F30D21016024B0BDE8F08700BF701E0020704100203E
:2037BC00E182000013DB0000E3D9000014DC0000D0200240A84F00500010084000300940A6
:2037DC00FEB5D0E9005401A807F03CFA95F834003649374A384E085C95F83510515C354A8E
:2037FC00084395F83610515C2A6B40EA0103316820684F680299B847206840F2F272E16945
:20381C002E4B2F4F426494F854209A5C94F85530FB5C1A430129426311D10146D4E90A2352
:20383C0051F8307FFF2A27F4004718BF07F50047FF2B0F6009D00A6842F4804208E00146C4
:20385C0051F8302F22F400420A600A6822F480420A60C16A41F01001C162016B41F00101FF
:20387C000163E16B09B3A16BF9B1012107F01CF9D5F85801E16B40680068C162C0F8041566
:20389C0091FAA1F17268B1FA81F15368022298477068A16B02224368D5F8580191FAA1F144
:2038BC00B1FA81F1406800689847FEBDF0DC0000FCDC0000D8DC0000D0010010E2DC00002E
:2038DC00DDDC000070B58AB03549044602A8202207F022FC344D354832490022D5F80A3049
:2038FC00D5F80E604A808360330C06738373330A43730B7B012C23F00F0311D143F08202B2
:20391C000A73D5F806208A60C27BA98822F00F02C9B142F00402C27340F6C41251431BE01E
:20393C008A600B73A98889B140F6C412514302698A428FBF511AC17B01F0F00104319CBF5A
:20395C00C173642108E042F0010103E0C17B01F0F0010131C17300210161059107F01CF9EA
:20397C000446A8781249154B08700021114801911149006800910B4902AAFDF7DDFD104D04
:20399C002880204607F077FBB5F900000D4900284FF0000048BF0120487000200AB070BD42
:2039BC007CDB0000A8410020781D0020641D0020CC1D0020B81C0020020080802D5D0000AC
:2039DC00521E00208A1D00202DE9FE4F054603F055FD834607F0F4F80290681E3949C0EB90
:2039FC00001001EBC0065846716D07F092FBB24640F6C41435463AF8121F6143B0FBF1F0D5
:203A1C00B16E013005F8090F584607F082FB2978BAF80020019601FB02F7716D6243B0FBE6
:203A3C00F2F007FB04110130A1F6983146F8601F3446B04606F10C0904F8580D38F8480DC1
:203A5C0078434FF4C872B0FBF2F00130C9F80000091A584606F020F848B9D9F80000316859
:203A7C00081A00F5DA61584606F016F890B12878BAF8002040F6C4110130174428702078BC
:203A9C0001302070306802FB0101B8F8000031607843D6E7D9F800003168019A091A51661A
:203ABC00D17E117742F20F4101EB400040F6C411B0FBF1F0013090820298BDE8FE4F04F009
:203ADC0033BD00BFF02400202DE9FE4F4FF4804007F0D8F8A0B1354C35496068D1F81320A6
:203AFC0009786FF39F5201F00401806842EA417101AA00F09DFD60688168012006F042FCDF
:203B1C002E482C4F2C4D44F2020B00244FF0000A00F14009BAF1020F3CD055F82A80D8F8A6
:203B3C000000A0B3D8F80000806907F0ABF80646D8F800000023324606F07EF816F00A0F81
:203B5C001ED0D8F800008069B9686BEA00000840B860D8F80000C069396821EA000038608F
:203B7C001020D8F8001006F00DFCD8F80010484606F076F9002044F00204C8F8000006E047
:203B9C002EB1D8F800000D4944F4804408650AF1010ABFE724B10A482146283007F0A7FA71
:203BBC0001F07AFCBDE8FE4FFDF7ACBE201A0020850300210C10044088DC0000241C00200B
:203BDC00C01B00202DE9F04742F22C0940F2100A42F20C0640F2B81715460C468046C4F25C
:203BFC000909C4F2090AC4F20806C1F2000701F04FFF44F20C00C4F2090000210160D9F8BD
:203C1C0000003868816927208847306B4FF6FF71CFF6FE6108403063B06F20F48070B0675F
:203C3C003868016B4FF4806088473868016B4FF4816088473868016B4FF4C060884742F2F9
:203C5C002800C6F2080001210160C6F880413160DAF80000800705D4681C08BF4FF040458C
:203C7C00CAF80C50D9F80000F0698007FCD500BF072004F049FB0228FAD1B8F1000F16D1D6
:203C9C0044F20004C4F20304386A8168204688470428F9D0012804D1386A03214268204688
:203CBC009047D6F8180220F00300C6F818023868806BBDE8F04700472DE9FC47066804467F
:203CDC00707A00286BD0D4F80490D6F85801D0F80480D9F83470204602F032FE706F20B3F9
:203CFC0006F14C05284607F0FEF9316F884221D2307902281ED0B06E002850D0204602F028
:203D1C001FFE346F284607F0EEF9201AD6F868A0B46F7067284607F0E6F90021F1740AEBB2
:203D3C00040108440190706F0CE0B06E10B1306F0028D5D106F14C0001A905F036FD012137
:203D5C007067F17458B30021B173B0F5806F84BF4FF48060706701990123014401397960D4
:203D7C001049B96043F6F07101EB00100840B9680843B860D9F83C10D9F8000091FAA1F247
:203D9C00B2FA82F203FA02F2D8F800309A61D6F85821526812689162012106F091FEBDE841
:203DBC00FC8700BF0180000C70B5A6B0304E0446B078C8BB0120B07024B90AAC00202146CF
:203DDC0005F00AFD2B4D002000210022F0806860002006F089F9F060274E07F040F9E860E3
:203DFC0007F03DF9686107F03AF9286107F037F9A86024226088ADF85C00D4E90101CDE92B
:203E1C001801A08904F11001ADF8680017AD05F1100007F081F91948D0E90001CDE9240100
:203E3C00284602F071FB18B10724204626B070BD1348202106F0D4FE01A807F0A9F82088F0
:203E5C0006F040FA0F4900280860EDD005900220002204902088002406900B4801A904F0B1
:203E7C00B3FE0A490028086008BF0724DDE700BFAC1D0020341D00204DA80000C0DC000032
:203E9C00104100202C420020811F00002842002070B541F21C30C5F20000066840F2B0141E
:203EBC00C1F2000405F03CFC40F28440C4F2602000250560206C806C804740F28010C4F295
:203EDC002830006850B140F28051C4F22031B6F1FF30096818BF304600F00FFC42F28C119B
:203EFC00C4F208010D6042F24801C4F203010A6840F23913282063F31B42C4F209000A602F
:203F1C00016801F44051B1F5805F09D101684FF6EF72CFF6FC42114001F5003202600160E9
:203F3C000025C4F224350126EE612068016A1420884742F20000C4F20900016841F4E02133
:203F5C00016044F6B4702E60C5F20000006800F44000B0F5000F06D1206C416C43F2BD707F
:203F7C00C0F2860088470C20C4F2682001680029FCD170BD2DE9F0418EB004464A1E0020D1
:203F9C0012F1030F0AD809AA0490029107922F4A06928DF814000222684600E003220C907E
:203FBC008DF834202020EFF3118680F31188608A30B1608A01386082012086F3118842E022
:203FDC0000293DD02248012104F1140790F808800172806909AD45620B9004F0D7FDA069BE
:203FFC0009970A900560A5619DF83400022808D118494A680C98016042601060486001F071
:20401C0095FA86F31188404604F0FCFD2021EFF3118081F311880C9939B10A684B681A6081
:20403C004A6809684A6000210C910B9900224A6280F311889DF83400002818BF012002E090
:20405C0086F3118800200EB0BDE8F0813B9400007C1C0020581B0020F0B591B01D46044691
:20407C00013B002013F1030F0AD809AB6E460490029507932D4B069302238DF8140001E0F3
:20409C00032300262A4F0E908DF834300C96CDE90F12B8690B902020EFF3118680F31188BE
:2040BC00204606F0A9FB10B186F311883CE0C5B301213D7A04F10C003972216909900A913A
:2040DC0009AA0A600B984262226104F05FFD0C9838B118494A68016042601060486001F0E1
:2040FC0025FA86F31188284604F08CFD2021EFF3118081F311880C9939B10A684B681A6099
:20411C004A6809684A6000210C910B9900224A6280F311889DF834100E98002908BF0846BD
:20413C0002E086F31188002011B0F0BD099400007C1C0020581B0020F8B516460F46054650
:20415C0006F090FE0446092F3AD8DFE807F00508111417313B1B4B2C306828604AE00120BB
:20417C006876D5E9040160306031C5E9040141E0306868833EE03068A8853BE03068224909
:20419C00886037E01F4820490025806B097E91BB88BB1E483168283006F020FE31681C48A6
:2041BC0006F01CFE26E02020314606F0EBF821E0306801281BD018B9802006F0C9FA19E06D
:2041DC00032518E00F4810490025806B097E91B988B93168192006F04BFA31681A2006F0FB
:2041FC0047FA07E03078064981F8600002E0802004F0AAFF8325204606F022FF2846F8BD44
:20421C00703C0020241C0020201A0020C01B0020203F0020F0B5314A046A516B137D0C613B
:20423C00446A01F1200C032B0B704C61846A8C61C46ACC6190E8F000ACE8F00000F14004E9
:20425C0000F110074C64F0CF01F1300CACE8F000046B0C64446B8C64846BC06BCC640865E4
:20427C000BD8DFE803F0020D1016156DC4B2106C936C55F824404C600FE0002000230CE062
:20429C001748406D06E0174880694860D0E90A3003E000204860106C936C926BC1E902035B
:2042BC0032B12BB110F8014B013B02F8014BF8E70D4802684A6590F824208A6590F8252078
:2042DC00CA65C28C0A66826A4A66C26A8A66026BCA66426B0A67806B4867F0BD881A002059
:2042FC00F01A00207C1C002004ED00E0F8B50C4600283FD02F4E0DF103050121307901303A
:20431C003071284604F0B8F99DF803702846012104F0B2F99DF8030047EA002080B206F085
:20433C001BFB38B3244F054602300121B847E81C0121B84768682988B847A8784009032816
:20435C0003D0022808D0012811D1308940F0200030811A48006905E0308940F00800308155
:20437C0016484069F1682A4605F0BAF802E0284605F098FF114D64B1686850B10D48C178FC
:20439C000131C170018941F040010181C06802F029FEA86806F0F6FD18B1E86806F0F2FDE8
:2043BC0038B90448018941F010010181C06802F019FEF8BDAC1D002095860000341D0020FB
:2043DC00BFB52A482A490160FFF778F9294D2A4C012101222868036820469847286801217D
:2043FC00426820469047022005F0AAF8032005F0A7F806F005FB02F03FFF04F0B5FC1F4818
:20441C0040F20121ADF800101E4900880291ADF806001B480068CDF80200C0B2FF281BD133
:20443C009DF80300FF2817D19DF80400FF2813D19DF80500FF280FD19DF80600FF280BD1D6
:20445C009DF80700FF2807D10F4968460230098881800E49096801600D480390684603F029
:20447C00A1FB06F0F9FC002004B0B0BD001E00206D940000D801001000400340D44F00503A
:20449C00D04F005002000508EC120050E81200501FB0000070B5F8B1012858D1012006F0E4
:2044BC000BFD012853D02D4C94F8380100284ED12848294E0569306810F4402F30D17DB376
:2044DC0005F030FF502006F0A0FD0120A84704F1940006F0F6FD25E006F0FBFD1E48006856
:2044FC0010F4402F0AD11B4804693CB11B48943006F0A3FD05F006FF0020A047174C94F8E8
:20451C00380120B31648016821F08001016080218160032004F0FEFD002084F8380116E05A
:20453C0006F0DBFD012084F83801306810F4402F00D14DB9207A800606D40948802181600C
:20455C00016841F080010160032004F0F9FF002070BD00BFECDB0000B44F00503018002026
:20457C00902208402DE9F8432020EFF3118980F311882C480068006B80472B4E4FF000083E
:20459C002A4F012286F85D8086F85C20D7E9104522462B4606F028FBA0FB042300FB053312
:2045BC0001FB0431746DC7E91221B168B268611A821A914205D986F85C8089F31188BDE8DB
:2045DC00F883051B89F311880020854206D304442D1A0120214602F0D5FCF6E72021EFF375
:2045FC00118781F3118896F85D1019B10020214602F0C8FC411C05D0B16D401B884288BF3C
:20461C00084600E0B06D011906F006FA002086F85C00012086F85E00B46087F31188BDE860
:20463C00F88300BF8C010010581B0020D83C0020F0B585B00D4600211446CDE90311CDE998
:20465C00011101A9009104A903AA02ABFEF70AFD029F3946002F18BF0121019E0140002E98
:20467C00324618BF01221140002D10D411B3049840F22B2105806FF39F5538462A4605F0AE
:20469C00D9FC0398314602F027F9676010E0C9B104984FF0FF316FF39F552A46018030460C
:2046BC002B2105F0C7FC0398314602F04BFA666015201EE0C8B104984FF6FF720188914271
:2046DC0014D110E078B16FF39F5503982B212A4605F0B0FCFF2806D004984FF0FF310180E9
:2046FC001420656005E0032005E004980580658010202080832005B0F0BDF0B581B044F6CD
:20471C00AC71C5F200014A6846F2092605469007C4F2080605D40868F02242EA104086F894
:20473C004D004AF20440C4F20C004FF0012202604AF2000040F2F017C4F20C00C1F2000719
:20475C0000888C68386801682046884704F04070B0F1807F03D1307840F002003070386851
:20477C00214642682846904701F00CFC41F20C40C5F2000000684BF20E02C0F30531C4F244
:20479C000C021170C1054FF0130158BF232140237354382101EA901000F56050A2F85C0051
:2047BC003868816820468847022003F029FB40F29440C4F260200121016001B0F0BD704712
:2047DC0084B00020002105F028FF274D286018B90320002104F03CFE244806F00DFB244E11
:2047FC0040F2C9413060234881822348006800688047062805D1202001210022002302F0C4
:20481C000DFD1E480768286800214FF080424FF0FF33FFF721FC306806F0B4FB0028F2D13F
:20483C00EFF3118087F311880390306806F0DCF80446039880F31188002CECD0204602F0B0
:20485C0091FFEFF3118087F31188029006F0B8F90190204605F0B4FF019803F065FE0298C5
:20487C0080F31188D7E700BF3C420020F0410020344200204C1D0020E8010010F4DC0000BC
:20489C002DE9FE43062815D815469AB1284F06460C4607EB80004178A14208D18178C078B7
:2048BC0081420AD22A788A4228BF904235D21820BDE8FE830220BDE8FE83042E29D0012E0F
:2048DC002BD195F9000005F045FC80464FF6FF708045ECD0DFF85C900221D9F8000001AA9F
:2048FC0001F052F89DF8040048B110206946ADF80280ADF80000D9F8000006F0B9FB0E4853
:20491C0001210022A0F81280D9F80000FFF714FC03E02888B0F57A4FC9D817F8260007490F
:20493C0022460844294606F0F7FB0020BDE8FE83B8DB0000B81C0020BC1C0020781D0020D6
:20495C002DE9FC412A4D95F86100002844D000240026602C40D095F86100F040C00702D1A9
:20497C0020340136F5E7112095F8618000FA06F706F078FA95F86110B94385F8611006F0D8
:20499C005FFB281928D0817A31B31021194A2C59B14011EA080190F9091052F82180466840
:2049BC00CFB209D001F066FB002079B200224FF00073009020460EE0017A022902D1C17C76
:2049DC00C90601D401F056FBCDF8008079B2204600224FF00063B04795F8610028B106482F
:2049FC000021BDE8FC4106F082BBBDE8FC8100BF703C002094300440203F0020F8B5056817
:204A1C000446D5F8F80000B1F8BD68796668022807D105F1D000694605F0BFFBC5F8F8007B
:204A3C0009E0D5F8EC10D5F8FC20D5F8F4001144C5F8F80000910028E6D031688A6B22F4E1
:204A5C0000628A6395F84410C90608D52F6C37B1AB6C204610210022B847D5F8F800B0F5A2
:204A7C00806F84BF4FF48060C5F8F8000099336B01444A1E3168B66B1A600E4A9A6043F66D
:204A9C00F07202EB001010409A6810439860D5F858014068006886620846022106F010F871
:204ABC00287A0028B0D120460121012605F0B2F92E72F8BD018000C070B5012953D00446EE
:204ADC00002942D128480121057A01722021EFF3118681F3118894F82010032916D002293A
:204AFC001BD0012929D12168E26C636819606168236859601168914204D1A169C26822EA02
:204B1C000101C160606AC0B1C0680FE020686168086060682168486012E0616A69B10A6809
:204B3C00C8684B681A604A6809684A6028B1016842681160416800684160204604F0F4F9D9
:204B5C0086F31188284604F05DF8216B481C0AD006480029406818BF08464368D4E90A21CF
:204B7C00BDE87040184770BD7C1C0020F01A0020F0B581B040F2A416C1F20006F06B01255A
:204B9C00016801208847012849D030684AF20007C468C4F20C0738463C2101220023002548
:204BBC00A047E0B338884AF20445C007C4F20C050AD14FF00120286038884FF6DC60CFF6C3
:204BDC00FF703058804708E04FF6DC60CFF6FF70305880474FF08070286042F2300044F2BE
:204BFC000822C4F20900C2F20002006844F20C211268C2F200010860801A43F2E412C2F21F
:204C1C00000244F240211368C0F20F014843A3EB93010125B1EB104F98BF010C1160284691
:204C3C0001B0F0BD70B506F023F906F057F906F05BF9044600F00C000C2803D100BF00BF67
:204C5C0030BF3BE060071ED403F0F6FD054600EB800001214600012005F050FD864212D9BB
:204C7C001C4CA5F11800606104F10C0005F055FF00BF00BF0120FDF7D5FA00BF00BF0020F7
:204C9C0084F820001CE000BF00BF200715D40E4E0E4D30688168284688470428F9D0B0FABE
:204CBC0080F004F01001400940EA111006F013FA074801210160006800E030BF00BF00BF45
:204CDC00BDE8704006F0DAB8D8010010004003402C200940301800202DE9F041264F05466B
:204CFC003E1806F0BFF8044696F84A01013886F84A0100063AD1214800EB850110F82580D8
:204D1C004E885FEA08600DD45FEA48601FD41C480068816930468847304603F0F5FA0228AE
:204D3C00FAD11AE0164F3868016A304688473868816A304688473868016B30468847114863
:204D5C0001210160104801688907FCD505E007EB8600D0F8601100208847A5F1120010F164
:204D7C00060F03D808F03F00FFF7B6FF204606F067F90020BDE8F081301800203CDA0000D5
:204D9C00B801001028200860282008402DE9F0412A4B012702462024187A1F72EFF3118CDC
:204DBC0084F3118854698C4202D18CF3118840E01D6A8F40002905EBC10648BF03F12C06CE
:204DDC0048BF002792F82050012D26D1D2F800E0D2F84C805568C5F800E0D2F804E01568A5
:204DFC00C5F804E0D8F80050454505D1D2F818E0DD6825EA0E05DD609D699542354601D1E6
:204E1C00DE613568D5F804E01560C2F804E0CEF800206A60DD683D43DD60D6649761516140
:204E3C00B1F1FF3FDCBF0021D961012119748CF3118803F0E7FE2046BDE8F0817C1C0020AD
:204E5C002DE9F041254E0546371806F00BF8044697F84A01411C87F84A11C8BBDFF8808034
:204E7C00A5F1120010F1060F18F8257003D807F03F00FFF7E5FF08EB8500458838060CD465
:204E9C0078061FD417480068416928468847284603F05CFA0128FAD11AE0124E3068C16910
:204EBC00284688473068416A284688473068C16A284688470C48012101600C4801688907F5
:204EDC00FCD505E006EB8500D0F8601101208847204606F0B5F80020BDE8F08130180020BA
:204EFC003CDA0000B801001028200860282008408B4208BF824207D9009A002A01D010603A
:204F1C005160002100207047002B08BF002A10D1009A002A01D01060516002000B000021EB
:204F3C000020002B08BF002A1CBFC943C04300F0AEBFF0B51C4615460B4602460020002196
:204F5C00B4FA84F6202E04BFB5FA85F62036B3FA83F7202F04BFB2FA82F72037F61BB6F10F
:204F7C00200727BF05FA07F400257F42B4403EBF25FA07F73C43B540A34208BFAA4201D33A
:204F9C00521BA341404149416D0845EAC4756408761EF1D5059F002F01D03A607B60F0BD30
:204FBC002DE9F04F87B0984691460E46074602F065FA234D0446DDE912B1DDE910A2687807
:204FDC0001282ED11F480068EFF3118180F311880691202006F093F8069981F31188F0B199
:204FFC00DBF80020002180F80CA0A0F80A8080F8089046600780C1611199C0F80E209BF8B9
:20501C000420417355F8081F8274139A0029C0E905246A68686018BF02F11C05286000205D
:20503C000AE0CDE900A2CDE902B1384631464A4643460494FDF7A2F907B0BDE8F08F00BFDA
:20505C009C1D0020F4DC000010B586B00146427E8068002343F606040593CDE90333029322
:20507C00438003881C1B022C10D3B3F5C15F03D040F60204A34212D1038A002A23F4FE63B0
:20509C0012BF038243F43472028208E0038B23F4FE630AB1038302E043F4347202830022A8
:2050BC004A7602A9009105A904AA03ABFDF7DAFF28B105984FF6FF71008888420ED0049C06
:2050DC000299204601F008FC0748016821B1204606B0BDE81040084706B010BD049C029916
:2050FC00204601F02FFDEFE70C1E0020F8B51546044625480E461168D268AF690068002F7C
:20511C0018BF3846206321616261D5E90421002908BF4FF4007162B1D31D11444FF0FF3009
:20513C0023F007032063C91A21F00701C4E90A1308E00731082221F00701A16203F080FD17
:20515C00E062F0B1D5E9010104F13803EA69666307C395F8200084F8480018B10B48416943
:20517C000131416100206065204600F0FBFF08B10230F8BD054804F1080105F075FB00209A
:20519C00F8BD0120F8BD00BF444200207C1C00202DE9F84F002480460021002204606846AF
:2051BC0000F0E4FA204DDFF884A081464FF0FF374FF0190B0020602C1ED02A19917AB9B1AC
:2051DC00107A022816D0DAF80400418B0069084495F8621011FB0B01506904F0B8FA064600
:2051FC0005F067FFB6FBF0F0B84238BF074601202034E0E70120002709EA0001012904D1F2
:20521C000099B94238BF0F4606E0B9F1000F01D0009F01E0C10701D0C8F8007040EA0900A6
:20523C0000F00100BDE8F88F703C0020201A002082B00020002105F0F0F9214D286018B9F7
:20525C000320002104F004F905F1080005F0D4FD1C4A686000200021012302F081FF1A48D2
:20527C0002F020FB19480668286800214FF080424FF0FF33FEF7F0FE686805F083FE0028C2
:20529C00F2D1EFF3118086F311880190686805F0ABFB0446019880F31188002CECD020882F
:2052BC00012808BF03F062F9EFF3118086F311880190204605F084FA019880F31188DBE73E
:2052DC008C1D00204175000017B00000F4DC00002DE9FC41204F0446786808B18047B0B3CD
:2052FC00F868BA69610305F0B1FE012500282FD41A4904EB440001EB8006F07DFE2838BF24
:20531C00451C1748F5750021042340EA0520019001AA204603F060FD387018B9032070763C
:20533C00FF20B0750F4F05F04FFE00234FF0FF080025B84705F048FE0123B84705F044FE4B
:20535C000223B847102086F81880B08300E00B252846BDE8FC8100BFEC1C00202C40002081
:20537C00FF000F9679980000F8B50446FD201D468DF8030020461E68324600F041F810B10F
:20539C0001208DF803009DF80300FD2815D1E068007B00F00F0002280FD176B137682046AD
:2053BC0031463A4600F02CF820B9002F3E46F5D1002602E002208DF803009DF80300FD2805
:2053DC0004D1E06B10B104208DF803009DF80370042F0FD0022F06D0012F0FD1284621461E
:2053FC0004F005FD0AE0326822B12846214604F0EBFC03E02846214604F032FD78B2F8BDDA
:20541C0070B5B2FA82F3B1FA81F45B096409B0B312B190F844506DB389B191F844406CB371
:20543C00446B0E69096C05698908A408AE4214BFED6800252944611AB1F1704F22DAB2B125
:20545C00D168097B01F00F01022915D1516B0569006C146980088908A54214BFE26800220F
:20547C001044081AB0F1704F01DB012804DB0124012304E0002302E0012400E0002404EA0D
:20549C00030070BD00240029C8BF0124002AF6D00129D5DAF3E770472DE9F84F204E214F32
:2054BC00DFF8848000254FF0010B4FF002094FF0110A602D08BFBDE8F88F7C192ED0A07AB4
:2054DC0001282BD1607A41B20BFA00F01131C0B20BFA01F1CA43326072681143716005F08B
:2054FC0037F904F11000002104F0FAF9812809D1A06920B1002104F0F3F9812802D184F8FD
:20551C000A900BE0607A97F861100AFA00F00843002187F86100404605F0E9FD2035C8E76B
:20553C0008100440703C0020203F00202DE9F041044680681F4F206297F85E00E8B197F82A
:20555C005C00D0B91C480068006B8047DFF86C80D8E910562A46334605F046FBA0FB052380
:20557C0000FB063301FB0531C8E91221B9687B6DBA689A1A411A91420CD904F035FA01218E
:20559C002175A2681044E06097F85C0078B187F85D100CE001212175A2681118181A8242EE
:2055BC00E16004D21046BDE8F04105F035BABDE8F08100BF581B00208C010010D83C00206F
:2055DC00002840D02DE9F0418EB01F490AAE002503904FF020080896059507918DF81850F6
:2055FC0001A801210D901948EFF3118788F31188047A017280690C9003F0C8FA14494A68FE
:20561C000D980160426010604860FFF78FFF0C9846620B960A96204687F3118803F0F2FA45
:20563C00EFF3118088F311880D990A684B681A604A6809684A600D9580F311880C984562BC
:20565C000EB0BDE8F041704711A900007C1C0020581B002070B5044605F026F805462046AB
:20567C0005F086F90446284605F014FC64B31A4E706818B104F016FE0020706020880430E9
:20569C0080B204F01FFE00B305462078287060786870A078A870E078E870281D2288616835
:2056BC0005F03AFD20887560043081B2284602F06FFEA078022141EA5010032807D10748D9
:2056DC0041780139417002E070BD002070602046BDE8704004F0E6BD341D0020AC1D00205F
:2056FC002DE9F04186B0DFF8708098F8650078BB012088F86500C8F80480C8F8008004F0A4
:20571C00EBFA164801AA114690E8F8000520F8C10490134808F11004124900F11C0320460D
:20573C0002F0FEFAC8F84C4003F012FA0E48D0E9102347F69160101A73F1000031BF4FF0EB
:20575C00FF30002047F6906105F04EFAC8F8580006B0BDE8F08100BF581B002000DC000061
:20577C00F01A002081450000D83C002010B504461E4849B138300068B0B1C3681B7B03F095
:20579C000F03022BF7D100E0806B68B102B11060C268137B03F00F03022B08D151B10169B0
:2057BC008A8DC968114415E0002100201CE00120002119E012880169A2F60302012A4A8B22
:2057DC008CBF0969496919231144094A92F8622012FB0311406B03F0BAFF206005F069FCFC
:2057FC002168B1FBF0F10120216010BD241C0020703C00202DE9F84F07461E4815460E461D
:20581C00009300F138094C4624680CB1B442FBD14FF0000A00F1400B44B32069D4F80080B9
:20583C00B84220D1204600224FF0805304F004FA009870B1204600224FF0807304F0FCF979
:20585C0030690D49086291F8240040F0010081F824004846214604F0B3F95846214604F0CA
:20587C00FFFA0AF1010A002D4446D5D15046BDE8F88F00BF241C0020C01B00201F48032149
:20589C0080F85010022141740121017000210175062180F8A21004214176072180F84B10EA
:2058BC000A2180F85A10092180F83F10082180F83D100D2180F8951040F60541A0F88A10E7
:2058DC000B2180F84E100E2180F86A10102181770F21017341F21211A0F89610132180F87C
:2058FC004810152180F8A310142181710449C0F8AF10162180F82710704700BFD503002193
:20591C00C1420021FEB514460DF1050207230D46064605F0C7F99DF805109DF806209DF8BD
:20593C00073026749DF80960A5819DF80B009DF808504FEA910C01F00301A07242EA012E91
:20595C009A009DF80A30B10184F808C042EA9512A4F806E01F06A28041EA97616172012118
:20597C00962803F0030008BF04210843E07205F03F00800140EA9600E0814FEA0E3040EA57
:20599C000C6010442060FEBD70B514460E4605F069FA0325052E2CD8DFE806F003090E2B64
:2059BC00161B19498A6CCAB1896C098E02E0154991F8601021801BE01149097E0239B1FA9F
:2059DC0081F14909217013E00C490A68226049680DE00A490A681AB1D26802E0802508E043
:2059FC0000222260496809B1C96800E000216160832505F025FB284670BD00BFC01B002077
:205A1C00201A0020703C0020241C0020FEB504468DF80B0004F0B0F9032800D090B9601EF8
:205A3C001A4EC0EB001006EBC007B87D102807D8052805D3388BB0F5077F01D8282804D231
:205A5C00042400E001242046FEBD0DF10B02022001210124FEF714FF3D6FF9687A6EBB8A26
:205A7C00B87E009502F0A4FD0028ECD19DF80B50284604F081F900240328E4D13078072820
:205A9C00E1D8013000243D713070DCE7F0240020B0B51020C4F209000168890733D444F609
:205ABC00B470C5F200000068810248BFB0BD40F2EC11C1F2000109680124096804EB207522
:205ADC008847C0F13E00C11007220729B8BFC21041F20C30C5F200000068AA42C0F3032029
:205AFC00D8BF2A46801A0F28A8BF0F200128D8BF204646F20D2140F0F000C4F2080181F838
:205B1C004D000878B0BDFD21C4F20001C160B0BD70B50568D5F8F81031B3D5F8582144688F
:205B3C005668A16B20683268D162022104F0BCFFD5F85801A16B154A40680068C0F80415E6
:205B5C0091FAA1F112683068B1FA81F1926990470446D5F8F800011B6879022806D105F108
:205B7C00D00003F00BFE0BE000240CE0D5F8F400D5F8FC200A44401AC5F8FC20C5F8F40066
:205B9C000020C5F8F800204670BD00BFD40100102DE9F843DFF874901446D9F8082002EA72
:205BBC0001038B4221D1806843688B4220D966186FF005059E4226D82240A24223D1006846
:205BDC00471802F0F9FD8046ACB105F04BF90646384604F0E6FC0546304605F031FA5DB96F
:205BFC00D9F80400241A0744EEE76FF004050AE06FF0030507E00025404604F051FA002D9F
:205C1C0018BF4FF0FF352846BDE8F883D81D002070B5184B2021EFF3118081F31188174CCF
:205C3C001548DA6C02609C64154C1A661C64154B04689C4210D14268144B22F47F421A4419
:205C5C00426081764FF40071C160D0F82C1221F04041C0F82C1270BD0B4D0024362CEAD067
:205C7C000E2C8EBF42F8245053F8246042F824600134F3E7881A002008ED00E0000400009C
:205C9C00003C0120000000007D9C00000000FA052DE9F04385B007461C480125846984B3FA
:205CBC00666990F808800572B868012807D100254046BD603C61FE6002F0A4FF21E0386957
:205CDC00A0421AD0204607F1140904F031FF01A90025484632466162CDE9034504F090FA29
:205CFC0038694069864203DD38693146FFF74EF8404602F087FF656203E0404602F082FFA1
:205D1C000125284605B0BDE8F08300BF7C1C002070B5154605F0F7F91B4E0446280207D571
:205D3C00707828B9002010210022002301F0BAF9A80705D4E80F18D000200E2130700FE0FF
:205D5C00707890B9114811214088A0F5A052082A10D8012303FA02F240F2CF131A4209D0A4
:205D7C0000200022002301F09DF92046BDE8704005F0CBB9B0F5006FF2D041F6010188420E
:205D9C00DAD10F21ECE700BF8A1D0020A8410020B0B5184D286830BB174C204605F0AAF805
:205DBC0016490620AA8AC4E90510002002F4784220601348007800F0070100F008001144E4
:205DDC00084400F53470A882002004F0C3F9E8820C480E492A1D23460068A8610A48FAF74F
:205DFC000FFE286018B101F0C1FF0020B0BD0120B0BD00BFB81C0020F040002025900000A5
:205E1C0000DD0000681E00202039002024DC000041F29420C5F20000D0F884104FF200022D
:205E3C00C0F6FF72114041F200020068C0F6B432914211D1C0F30332082AC0F340610ED094
:205E5C00092A11D00F2A07D1020213D400F08072A9B1A2B1112000E0FF2040B270470A2084
:205E7C00002908BF0C20F8E74FF0FF30002908BF0920F2E70E20002908BF0D20EDE70B2061
:205E9C00002A18BF1020002918BF0F20E5E7704770B50446B0F90E00227A81B2920702D59E
:205EBC00227B1F2A0CD8154A6368D26C52F820509D4218BF42F820304A42E281227B0BE023
:205EDC000E4B1D6D45F820400D4DDB6C53F82060AE4218BF43F82050102901D30A4902E006
:205EFC00042902D3074901440A70217AC90718BF02F0F8FA0020A060002070BD881A002020
:205F1C00312D000014ED00E0F0E300E0B0B540F2E014C1F2000420680021426801209047E6
:205F3C002068016801208847F0B14AF20000C4F20C0001884AF20445C907C4F20C050AD145
:205F5C004FF00121296000884FF6A060CFF6FF702058804708E04FF6A060CFF6FF70205822
:205F7C0080474FF08070286042F23000C4F209000068E0680068804744F21021C2F2000169
:205F9C000860B0BD44F6B070C5F200000168C90633D441F25031C5F2000109684CF2004263
:205FBC00C3F6FF7211404CF20002C1F60742914218BF704740680F22010480034FF0000009
:205FDC0058BF081610F1240FD8BF6FF023001B28A8BF1B2024300321A1EB101122FA01F10B
:205FFC0022EA00004FF6FF7222FA00F040EA01404AF21801C4F20C0108607047F8B51A4E00
:20601C000546306828B119490978A9420AD8002428E001F07BFD3068002418B313490978FF
:20603C00A9421FD9124A05EB450102EB81044FF0FF31D4E9015704F0D6FF287870B970686F
:20605C003968421E0A4209D17968814206D3B0680840814202D10120287000E00024306835
:20607C0005F043F82046F8BDD81D0020FEDC00004CDC0000F8B5054604F0F4FE044665B362
:20609C00A87A50B36F7A012604F08CF9697A48B1144A48B21130536806FA00F08343C0434D
:2060BC005360106006FA01F30F49002206FA07F02A72AA72C5E90422AA61C5E9002291F84C
:2060DC00605091F862202B4381F8603012B1013A81F86220C0B203F037F82046BDE8F840A2
:2060FC0004F0AEBF08100440703C00201CB5F8B190F908100446A1F17F00C0B2032819D2FD
:20611C00174A0020138913F4407F28D0C9B27F2925D120885168095C09071FD5ADF8000000
:20613C00607A7F216A468DF802108DF8030010E001201CBD084604F027FB09492088496801
:20615C00095C09070AD5ADF804002089ADF8060001AA83200121042301F060F800201CBDF9
:20617C004C1D002070B51A491A4A044603F090FA0146E061012051B3002184F8200061629A
:20619C006069B0F1FF3F1ADD60690121124A01FA00F0A0616069157A1172116A01EBC0000F
:2061BC00E0642020EFF3118680F31188204604F06FFC86F31188284602F024FD06E006482E
:2061DC00A16121462C30E06404F04EFB002070BD4DA10000958800007C1C00202DE9F04304
:2061FC0089B0109EADF82010079046B31C4633B3154607A802AA214600F034FE0746F8B9B2
:20621C00DFF84490D9F80800FFF742FD80460F48002203230092C188C07802AAFCF75AFC3C
:20623C00074630B902A829462246334601F062FB0746D9F80800414600F07EFD00E00427A1
:20625C00F8B209B0BDE8F083EC1C00202C400020F8B5054616484BF2F521174E006800FB82
:20627C0001F714483C0A006800F44020B0F5802F10D11248006880030CD4F06800688047CB
:20629C0001F0D2FB3168C9688847C010390B484304EBE0342DB90A48006820F07F40204416
:2062BC0044083069416C2046BDE8F840084700BF08400C40B44F0050E00100108C13005018
:2062DC0010200940F8B5164F1648BD6C04F0E2FC0446154801680668214011F0200318BFE4
:2062FC00002D0AD0284600223D6503F0A5FC0F484FF48041283004F0FAFE04EA060010F41E
:20631C00602008BFF8BD0A4991F8612042EA504081F8610007480021BDE8F84004F0E7BE8C
:20633C00241C002020000E000C100440C01B0020703C0020203F0020B0B5C8B104460C20B9
:20635C0003F0C0FFA8B10546E07828802088A88038B103F0B7FF2288A860D0B1616804F079
:20637C00DBFEA078392809D0592809D1002006E0B0BD2046BDE8B04004F0A9BE0220A87078
:20639C00204604F0A4FE084801682846BDE8B04008473AB1204604F09AFE2846BDE8B040FA
:2063BC0003F080BF0022D9E7641E002000B17047B0B51A4CE06C58B340F2000CEFF31180D0
:2063DC008CF311882020EFF3118180F31188D4E91650E16CB1FA81F1C1F11F0100EBC101BD
:2063FC008D4215D2086802680A6051600A688A4204D1416AE26C22EA0101E16400F008FB84
:20641C00E16C29B1E06DB1FA81F1C1F11F01E5E7002084F84800BDE8B0407047F01A0020D7
:20643C0010B596B0194C2020EFF3118180F31188E06810B903F09AFBFAE7E068216A144A65
:20645C000223B0FA80F0C0F11F00137501EBC002E26151F83010002020740020A16102F047
:20647C0049FC40F2000CEFF311808CF311882020EFF3118180F3118804F098FBA1696846F3
:20649C001C301C3103F03CFC16B010BD7C1C0020881A00207CB504F07FFB054604F033FE00
:2064BC00164E0446306900688068F0B1007903281BD113490DF1070002F064FF3069006841
:2064DC0004F00AFA284604F0D6FD204604F01DFE9DF807208AB10B48094B0178D0F804C05B
:2064FC00002002B0BDE870406047284604F0C3FD2046BDE87C4004F008BE7CBDA8410020CD
:20651C0018380020CC1D002070B5054604F0CCF80446D5E90D01134A134EC2E9000128888E
:20653C007080288803F0CEFE10490860C0B1718804F056FB288803F0C5FE0D49086078B123
:20655C00718804F04DFB687B0A4A05F1100102F073F802F0ABFD204604F09CFC002070BD76
:20657C00072070BDF8410020E41D00202442002030420020A1A200007CB50446069836295E
:20659C0003DB00220092174A0CE01646124A1D46124BE181126E52F821209A4207D0002246
:2065BC0000920F4A0B4602F0D3FE01207CBD084601F076FF286969682073C4E90016287A58
:2065DC00A060297D11B140F00200A0602046FFF75FFC00207CBD00BF881A00207D9C00005B
:2065FC004BD800005DD90000F8B5174E706808B1804730B3B068FFF74BFB144F04460025B3
:20661C003978E8B2884206D2FEF762FE3178013508433070F4E70E4F00203578F8707870FD
:20663C00481E7E21B870B88BF880002002F058FDB878FE2102F054FDB068214600F07CFB77
:20665C0000E00B252846F8BDEC1C00201F3900202C400020F0B587B0ADF81810059033B39B
:20667C002AB31C466B46114605A81A4600F0FAFB0546E8B9114F786808B18047D8B1B86870
:20669C00FFF706FB0646684621460022FAF740FC054638B9BDF80C1021B19DF8100001F0C2
:2066BC000FFA3D78B868314600F046FB00E00425284607B0F0BD0B25FAE700BFEC1C002065
:2066DC0070B5054604F0CEFB174E044696F82400A84386F82400306820B1B83004F0EDFC55
:2066FC00054600E00025706818B1B83004F0E5FC054396F8240030B92DB9306A18B190F81C
:20671C002810890704D42046BDE8704004F098BC456A204604F094FC306A0221002200241E
:20673C00A847346270BD00BFC01B00202DE9F0414FF02008EFF3118188F311880122144F15
:20675C0011490D7A0A72114991F8486081F848200021104A3C7D3975396D1268D2B251F885
:20677C002210886040F2000CEFF311808CF31188D1E900018847EFF3118088F311883C7558
:20679C0046EA0520BDE8F0817C1C0020F01A0020881A002004ED00E070B50D46044603F048
:2067BC00EBFA08B1002070BD284603F0E5FA0146002001B170BD621E114C691EC2EB021524
:2067DC00C1EB0113043404EBC50504EBC3032D6E1B6E2E469D4284BF1E460A46C2EB021109
:2067FC009D4204EBC10140F6C412098A88BF2B4601FB026101F57A71994228BF012070BD46
:20681C00F02400202DE9F04F89B006468800994690460F1D4FF0000B0DF1040A8DF8030007
:20683C00380415D0B8B23C46B1B25246202828BF2024A5B248462B4604F034FA5FFA8BF075
:20685C0051462A4603F0AEFF834626443F1BE7E75FFA8BF00DF10301012203F0A3FFB0EBF1
:20687C00080018BF0120400009B0BDE8F08FF0B540F6FF7C10F8013B0024082CFAD00646D7
:20689C00DF0716F8015B0AD1467806F00F070337122F0AD187783A0609D403300DE001F85C
:2068BC00015B304601345B08E7E7023006E0C27807F07F07043047EAC2171237320942EAC7
:2068DC000515654508BFF0BDED43002FEAD04A5D013F0A700131F8E789B36FF0C0020B0E63
:2068FC0002EA8112202B05D0212B05D0A02B05D1302118E0102116E0202114E0B1F1807FD5
:20691C0001D240210FE0102B05D0112B05D0402B05D1702107E0502105E0602103E09021F3
